{
  "address": "0xCf779bDD04dc7194a4f16e6Fb799aF5a7C5F9502",
  "abi": [
    {
      "inputs": [
        {
          "internalType": "contract FHEAuctionEngineIteratorFactory",
          "name": "iteratorFactory_",
          "type": "address"
        }
      ],
      "stateMutability": "nonpayable",
      "type": "constructor"
    },
    {
      "inputs": [
        {
          "internalType": "address",
          "name": "owner",
          "type": "address"
        }
      ],
      "name": "OwnableInvalidOwner",
      "type": "error"
    },
    {
      "inputs": [
        {
          "internalType": "address",
          "name": "account",
          "type": "address"
        }
      ],
      "name": "OwnableUnauthorizedAccount",
      "type": "error"
    },
    {
      "anonymous": false,
      "inputs": [
        {
          "indexed": true,
          "internalType": "address",
          "name": "previousOwner",
          "type": "address"
        },
        {
          "indexed": true,
          "internalType": "address",
          "name": "newOwner",
          "type": "address"
        }
      ],
      "name": "OwnershipTransferStarted",
      "type": "event"
    },
    {
      "anonymous": false,
      "inputs": [
        {
          "indexed": true,
          "internalType": "address",
          "name": "previousOwner",
          "type": "address"
        },
        {
          "indexed": true,
          "internalType": "address",
          "name": "newOwner",
          "type": "address"
        }
      ],
      "name": "OwnershipTransferred",
      "type": "event"
    },
    {
      "inputs": [],
      "name": "acceptOwnership",
      "outputs": [],
      "stateMutability": "nonpayable",
      "type": "function"
    },
    {
      "inputs": [
        {
          "internalType": "address",
          "name": "auctionAddr",
          "type": "address"
        }
      ],
      "name": "createNewEngine",
      "outputs": [
        {
          "internalType": "address",
          "name": "",
          "type": "address"
        }
      ],
      "stateMutability": "nonpayable",
      "type": "function"
    },
    {
      "inputs": [],
      "name": "owner",
      "outputs": [
        {
          "internalType": "address",
          "name": "",
          "type": "address"
        }
      ],
      "stateMutability": "view",
      "type": "function"
    },
    {
      "inputs": [],
      "name": "pendingOwner",
      "outputs": [
        {
          "internalType": "address",
          "name": "",
          "type": "address"
        }
      ],
      "stateMutability": "view",
      "type": "function"
    },
    {
      "inputs": [],
      "name": "renounceOwnership",
      "outputs": [],
      "stateMutability": "nonpayable",
      "type": "function"
    },
    {
      "inputs": [
        {
          "internalType": "address",
          "name": "newOwner",
          "type": "address"
        }
      ],
      "name": "transferOwnership",
      "outputs": [],
      "stateMutability": "nonpayable",
      "type": "function"
    }
  ],
  "transactionHash": "0x74943bf7d49999313e7ac8091c6329ceffcf16c1ce323f333fbd119af75f53ad",
  "args": [
    "0xafaDe50062eE3e1BB6eaA030b1c0394537777b75"
  ],
  "numDeployments": 1,
  "solcInputHash": "7f1d2ee767592f15145b80b3c07e9f87",
  "bytecode": "0x608060405234801561000f575f80fd5b50604051613e38380380613e3883398101604081905261002e916100ef565b80338061005457604051631e4fbdf760e01b81525f600482015260240160405180910390fd5b61005d81610084565b50600280546001600160a01b0319166001600160a01b03929092169190911790555061011c565b600180546001600160a01b031916905561009d816100a0565b50565b5f80546001600160a01b038381166001600160a01b0319831681178455604051919092169283917f8be0079c531659141344cd1fd0a4f28419497f9722a3daafe3b4186f6b6457e09190a35050565b5f602082840312156100ff575f80fd5b81516001600160a01b0381168114610115575f80fd5b9392505050565b613d0f806101295f395ff3fe608060405234801562000010575f80fd5b506004361062000078575f3560e01c80638da5cb5b11620000535780638da5cb5b14620000c5578063e30c397814620000d6578063f2fde38b14620000e8575f80fd5b8063715018a6146200007c57806379ba509714620000885780637e1c07101462000092575b5f80fd5b62000086620000ff565b005b6200008662000116565b620000a9620000a336600462000505565b62000162565b6040516001600160a01b03909116815260200160405180910390f35b5f546001600160a01b0316620000a9565b6001546001600160a01b0316620000a9565b62000086620000f936600462000505565b6200029f565b620001096200031f565b620001145f6200034d565b565b60015433906001600160a01b03168114620001545760405163118cdaa760e01b81526001600160a01b03821660048201526024015b60405180910390fd5b6200015f816200034d565b50565b600254604051631fbddea160e21b81523060048201525f9182916001600160a01b0390911690637ef77a84906024016020604051808303815f875af1158015620001ae573d5f803e3d5ffd5b505050506040513d601f19601f82011682018060405250810190620001d491906200052a565b90505f620001e3308362000375565b60405163f2fde38b60e01b81526001600160a01b0380831660048301529192509083169063f2fde38b906024015f604051808303815f87803b15801562000228575f80fd5b505af11580156200023b573d5f803e3d5ffd5b505060405163f2fde38b60e01b81526001600160a01b0387811660048301528416925063f2fde38b91506024015f604051808303815f87803b15801562000280575f80fd5b505af115801562000293573d5f803e3d5ffd5b50929695505050505050565b620002a96200031f565b600180546001600160a01b03831673ffffffffffffffffffffffffffffffffffffffff199091168117909155620002e75f546001600160a01b031690565b6001600160a01b03167f38d16b8cac22d99fc7c124b9cd0de2d3fa1faef420bfe791d8c362d765e2270060405160405180910390a350565b5f546001600160a01b03163314620001145760405163118cdaa760e01b81523360048201526024016200014b565b6001805473ffffffffffffffffffffffffffffffffffffffff191690556200015f8162000486565b5f826001600160a01b0316826001600160a01b0316638da5cb5b6040518163ffffffff1660e01b8152600401602060405180830381865afa158015620003bd573d5f803e3d5ffd5b505050506040513d601f19601f82011682018060405250810190620003e391906200052a565b6001600160a01b0316146200043b5760405162461bcd60e51b815260206004820152600b60248201527f57726f6e67206f776e657200000000000000000000000000000000000000000060448201526064016200014b565b5f83836040516200044c90620004e2565b6001600160a01b03928316815291166020820152604001604051809103905ff0801580156200047d573d5f803e3d5ffd5b50949350505050565b5f80546001600160a01b0383811673ffffffffffffffffffffffffffffffffffffffff19831681178455604051919092169283917f8be0079c531659141344cd1fd0a4f28419497f9722a3daafe3b4186f6b6457e09190a35050565b6137ba806200054983390190565b6001600160a01b03811681146200015f575f80fd5b5f6020828403121562000516575f80fd5b81356200052381620004f0565b9392505050565b5f602082840312156200053b575f80fd5b81516200052381620004f056fe60a060405234801562000010575f80fd5b50604051620037ba380380620037ba833981016040819052620000339162000513565b815f8282620000dd620000d7604080516080810182525f808252602082018190529181018290526060810191909152506040805160808101825273fee8407e2f5e3ee68ad77cae98c434e637f516e5815273687408ab54661ba0b4aef3a44156c616c6955e07602082015273fb03be574d14c256d56f09a198b586bdfc0a9de291810191909152739d6891a6240d6130c54ae243d8005063d05fe14b606082015290565b6200028b565b6001600160a01b0381166200010b57604051631e4fbdf760e01b81525f600482015260240160405180910390fd5b620001168162000358565b506001600160a01b0381161580620001a25750826001600160a01b0316816001600160a01b0316638da5cb5b6040518163ffffffff1660e01b8152600401602060405180830381865afa15801562000170573d5f803e3d5ffd5b505050506040513d601f19601f820116820180604052508101906200019691906200055d565b6001600160a01b031614155b15620001c15760405163d855fd1760e01b815260040160405180910390fd5b600180546001600160a01b0319166001600160a01b03831617905560ff82166003811115620001f457620001f462000549565b6003805460ff19166001838381111562000212576200021262000549565b02179055505f6200022381620003a7565b90506200023081620003bb565b60808190526009819055600a81905563deadbeef600c819055600d819055600f55600b805461ffff191661dead17905560145550506003805466010000ffff000067ffff0000ffff0000199091161790555062000598915050565b80515f805160206200379a83398151915280546001600160a01b03199081166001600160a01b039384161790915560208301517fed8d60e34876f751cc8b014c560745351147d9de11b9347c854e881b128ea6018054831691841691909117905560408301517fed8d60e34876f751cc8b014c560745351147d9de11b9347c854e881b128ea6028054831691841691909117905560608301517fed8d60e34876f751cc8b014c560745351147d9de11b9347c854e881b128ea6038054909216921691909117905550565b50565b5f80546001600160a01b038381166001600160a01b0319831681178455604051919092169283917f8be0079c531659141344cd1fd0a4f28419497f9722a3daafe3b4186f6b6457e09190a35050565b5f620003b5826008620003c7565b92915050565b6200035581306200047e565b5f805f805160206200379a8339815191526001810154604051631ce2e8d760e31b8152600481018790527fff0000000000000000000000000000000000000000000000000000000000000060f887901b1660248201529192506001600160a01b03169063e71746b8906044016020604051808303815f875af115801562000450573d5f803e3d5ffd5b505050506040513d601f19601f8201168201806040525081019062000476919062000580565b949350505050565b5f5f805160206200379a8339815191528054604051631974142760e21b8152600481018690526001600160a01b0385811660248301529293509116906365d0509c906044015f604051808303815f87803b158015620004db575f80fd5b505af1158015620004ee573d5f803e3d5ffd5b50505050505050565b80516001600160a01b03811681146200050e575f80fd5b919050565b5f806040838503121562000525575f80fd5b6200053083620004f7565b91506200054060208401620004f7565b90509250929050565b634e487b7160e01b5f52602160045260245ffd5b5f602082840312156200056e575f80fd5b6200057982620004f7565b9392505050565b5f6020828403121562000591575f80fd5b5051919050565b6080516131c6620005d45f395f818161084001528181611b6101528181611f6401528181611faf015281816122b401526122e101526131c65ff3fe608060405234801561000f575f80fd5b506004361061024f575f3560e01c80637ca40d1c1161013d578063c15bd28f116100b8578063e8f5858111610088578063f2fde38b1161006e578063f2fde38b1461056f578063fcd9107614610582578063fddcc14814610595575f80fd5b8063e8f5858114610552578063e9a04b0c14610565575f80fd5b8063c15bd28f14610512578063c616f41214610524578063d36256081461052c578063dcc5ed201461053f575f80fd5b80638da5cb5b1161010d578063983fc6e1116100f3578063983fc6e1146102535780639da3604a146104c2578063b1890879146104d5575f80fd5b80638da5cb5b146104a8578063938e1222146104b8575f80fd5b80637ca40d1c1461043f578063869a0ca41461045257806386eea6c2146104965780638a88cb6f1461049e575f80fd5b8063290d2e8c116101cd5780635471e17f1161019d5780636dc7a627116101835780636dc7a62714610370578063715018a6146104245780637562fa0b1461042c575f80fd5b80635471e17f146103be5780635c94cb0c14610253575f80fd5b8063290d2e8c146103705780632f64cdf01461038257806333a581d2146103ae57806343d726d6146103b6575f80fd5b806318083d061161022257806326c8a7571161020857806326c8a75714610303578063285bb3931461031d57806328f6a48a1461034e575f80fd5b806318083d06146102e357806323e45f62146102fb575f80fd5b806302dda9cf146102535780630aa50fe0146102785780630de7056b146102a657806316e807c4146102ce575b5f80fd5b60135465010000000000900460ff165b60405190151581526020015b60405180910390f35b61028b610286366004612e6b565b6105a6565b6040805193845260208401929092529082015260600161026f565b6102b96102b4366004612e6b565b61066e565b6040805192835260208301919091520161026f565b6102e16102dc366004612e9a565b610722565b005b6102ed6202710081565b60405190815260200161026f565b6102ed610bbe565b61030b610bd3565b60405160ff909116815260200161026f565b61033061032b366004612edd565b610bee565b6040805160ff909316835263ffffffff90911660208301520161026f565b600354600160201b900461ffff165b60405161ffff909116815260200161026f565b601354600160201b900460ff16610263565b61035d610390366004612f1d565b6001600160a01b03165f9081526004602052604090205461ffff1690565b6102ed5f1981565b6102e1610c35565b6104046103cc366004612f1d565b6001600160a01b03165f9081526004602090815260408083205461ffff16808452600890925290912080546001909101549192909190565b6040805161ffff909416845260208401929092529082015260600161026f565b6102e1610c71565b61033061043a366004612edd565b610c82565b6102e161044d366004612f36565b610cbc565b61047e610460366004612e6b565b61ffff165f908152600560205260409020546001600160a01b031690565b6040516001600160a01b03909116815260200161026f565b6102ed610d13565b6102ed6202848881565b5f546001600160a01b031661047e565b6102ed6203d09081565b61028b6104d0366004612e6b565b610d31565b6104e86104e3366004612f75565b610e16565b6040805160ff909416845267ffffffffffffffff928316602085015291169082015260600161026f565b60035462010000900461ffff1661035d565b6002546102ed565b6102e161053a366004612f1d565b610ec4565b61033061054d366004612edd565b611119565b610330610560366004612edd565b611153565b6102ed620668a081565b6102e161057d366004612f1d565b61118d565b610404610590366004612e6b565b6111c7565b6001546001600160a01b031661047e565b6010545f908190819061ffff908116908516106105ed5760105460405163d5e461d560e01b815261ffff808716600483015290911660248201526044015b60405180910390fd5b60118461ffff168154811061060457610604612fb0565b905f5260205f20906004020160030154925060118461ffff168154811061062d5761062d612fb0565b905f5260205f2090600402015f0154915060118461ffff168154811061065557610655612fb0565b905f5260205f2090600402016001015490509193909250565b6013545f908190600160201b900460ff161561071d5761ffff8084165f90815260076020526040902054168015806106b6575060035461ffff600160201b9091048116908216115b156106da5760405163033c90e360e31b815261ffff851660048201526024016105e4565b61ffff84165f90815260086020526040902054925060156106fc600183612fd8565b61ffff168154811061071057610710612fb0565b905f5260205f2001549150505b915091565b61072a611262565b600354610100900460ff161561075357604051630cdc4b0d60e31b815260040160405180910390fd5b6001600160a01b0383165f9081526004602052604090205461ffff1615610798576040516301f87a7b60e11b81526001600160a01b03841660048201526024016105e4565b60035461ffff6201000082048116600160201b90920416036107cd5760405163f9910d2b60e01b815260040160405180910390fd5b6003546601000000000000900461ffff166107e9816001612ffa565b6003805467ffff0000000000001916660100000000000061ffff9384160217908190555f9161082191600160201b9004166001612ffa565b6003805465ffff000000001916600160201b61ffff84160217905590507f00000000000000000000000000000000000000000000000000000000000000005f6108718661086c610bbe565b61128e565b905061087e8183886112b5565b955061088c856002546112c9565b94505f61089987846112e7565b90505f6108a687856112e7565b90506108b381858a6112b5565b97506108c08285896112b5565b96505f806108d18861ffff16611315565b905060026003805460ff16908111156108ec576108ec613015565b03610904576108f9611321565b91506109048261132c565b61090d8a61132c565b6109168961132c565b61091f8161132c565b8760065f8961ffff1661ffff1681526020019081526020015f205f6101000a81548161ffff021916908361ffff1602179055508660075f8a61ffff1661ffff1681526020019081526020015f205f6101000a81548161ffff021916908361ffff1602179055508760045f8d6001600160a01b03166001600160a01b031681526020019081526020015f205f6101000a81548161ffff021916908361ffff1602179055508a60055f8a61ffff1661ffff1681526020019081526020015f205f6101000a8154816001600160a01b0302191690836001600160a01b0316021790555060405180608001604052808b81526020018a81526020018381526020018281525060085f8a61ffff1661ffff1681526020019081526020015f205f820151815f0155602082015181600101556040820151816002015560608201518160030155905050610a8960405180608001604052805f81526020015f81526020015f81526020015f81525090565b63deadbeef80825260208201818152604083018281526060840194855260118054600180820183555f92835295517f31ecc21a745e3968a04e9570e4425bc18fa8019c68028196b546d1669c200c6860049092029182015592517f31ecc21a745e3968a04e9570e4425bc18fa8019c68028196b546d1669c200c6984015590517f31ecc21a745e3968a04e9570e4425bc18fa8019c68028196b546d1669c200c6a83015593517f31ecc21a745e3968a04e9570e4425bc18fa8019c68028196b546d1669c200c6b90910155601280548084019091557fbb8a6a4669ba250d26cd7a459eca9d215f8307e33aebe50379bc5a3617ec3444018190556015805492830181559092527f55f448fdea98c4d29eb340757ef0a66cd03dbb9538908a6a81d96026b71ec475015550505050505050505050565b5f6002545f19610bce9190613029565b905090565b600380545f9160ff90911690811115610bce57610bce613015565b6001545f9081906001600160a01b03163314610c1d5760405163ca27b3c960e01b815260040160405180910390fd5b610c28858585611336565b915091505b935093915050565b610c3d611262565b600354610100900460ff1615610c6657604051630cdc4b0d60e31b815260040160405180910390fd5b610c6f5f6117e7565b565b610c79611262565b610c6f5f6118bc565b6001545f9081906001600160a01b03163314610cb15760405163ca27b3c960e01b815260040160405180910390fd5b610c28858585611918565b610cc4611262565b600354610100900460ff1615610ced57604051630cdc4b0d60e31b815260040160405180910390fd5b6002919091556003805461ffff909216620100000263ffff000019909216919091179055565b6013545f9065010000000000900460ff1615610d2e5750600a545b90565b5f805f601360059054906101000a900460ff16610d6057604051625cf4ff60e41b815260040160405180910390fd5b60105461ffff90811690851610610d9c57601054604051639b99854360e01b815261ffff808716600483015290911660248201526044016105e4565b60118461ffff1681548110610db357610db3612fb0565b905f5260205f20906004020160030154925060118461ffff1681548110610ddc57610ddc612fb0565b905f5260205f2090600402015f0154915060128461ffff1681548110610e0457610e04612fb0565b905f5260205f20015490509193909250565b5f805f610e21611262565b600354610100900460ff16610e3957610e395f6117e7565b60015460405163b189087960e01b815267ffffffffffffffff8716600482015285151560248201526001600160a01b039091169063b1890879906044016060604051808303815f875af1158015610e92573d5f803e3d5ffd5b505050506040513d601f19601f82011682018060405250810190610eb69190613048565b919790965090945092505050565b610ecc611262565b600354610100900460ff1615610ef557604051630cdc4b0d60e31b815260040160405180910390fd5b6001600160a01b0381165f9081526004602052604081205461ffff1690819003610f1d575050565b600354600160201b900461ffff16610f4a57604051636f72435d60e01b81526004818101526024016105e4565b61ffff8082165f908152600760205260409020541680610f8057604051636f72435d60e01b8152600560048201526024016105e4565b6001600160a01b0383165f908152600460209081526040808320805461ffff1916905561ffff85811684526005909252909120805473ffffffffffffffffffffffffffffffffffffffff19169055600354600160201b9004811690821610156110615760035461ffff600160201b90910481165f90815260066020526040902054168061102357604051636f72435d60e01b8152600660048201526024016105e4565b61ffff8083165f81815260066020908152604080832080549590961661ffff1995861681179096559482526007905292909220805490911690911790555b6003805461ffff600160201b9182900481165f908152600660209081526040808320805461ffff199081169091558885168085526007845282852080549092169091558151608081018352848152808401858152818401868152606083018781529387526008909552929094209351845590516001840155905160028301555190840155825491909104169060046110f883613097565b91906101000a81548161ffff021916908361ffff1602179055505050505b50565b6001545f9081906001600160a01b031633146111485760405163ca27b3c960e01b815260040160405180910390fd5b610c28858585611cd9565b6001545f9081906001600160a01b031633146111825760405163ca27b3c960e01b815260040160405180910390fd5b610c2885858561215e565b611195611262565b6001600160a01b0381166111be57604051631e4fbdf760e01b81525f60048201526024016105e4565b611116816118bc565b6003545f908190819061ffff600160201b90910481169085161061121857600354604051639b99854360e01b815261ffff8681166004830152600160201b90920490911660248201526044016105e4565b60065f611226866001612ffa565b61ffff908116825260208083019390935260409182015f9081205490911680825260089093522080546001909101549196909550909350915050565b5f546001600160a01b03163314610c6f5760405163118cdaa760e01b81523360048201526024016105e4565b5f826112a05761129d5f6123a4565b92505b6112ac838360016123b0565b90505b92915050565b5f6112c184848461246d565b949350505050565b5f826112db576112d85f6123a4565b92505b6112ac83836001612503565b5f826112f9576112f65f6123a4565b92505b8161130a576113075f6123a4565b91505b6112ac83835f61257a565b5f6112af8260036125f1565b5f610bce6008612684565b6111168130612717565b5f80611346620668a060026130b3565b5a10156113585750600290505f610c2d565b601054604080516080810182525f808252602082018190529181018290526060810182905261ffff90921691819081908482036114b2577f3e5fec24aa4dc4e5aee2e025e51e1392c72a2500577559fae9665c6d52bd6a315461ffff165f90815260086020526040812060118054919290916113d6576113d6612fb0565b5f918252602090912082546004909202019081556001808301548183015560028084015490830155600392830154918301919091559054600160201b900461ffff16900361143f5750506010805461ffff191660019081179091559450849350610c2d92505050565b50507f8819ef417987f8ae7a81f42cdfb18815282fe989326fbff903d13cf0e03ace295461ffff165f9081526008602090815260408083208151608081018352815481526001828101549482019490945260028201549281019290925260030154606082015290945090925083906114e8565b50600b5460408051608081018252600c548152600d546020820152600e5491810191909152600f54606082015261ffff90911693505b5f805b8a63ffffffff168163ffffffff161015611745575f61150a828d6130ca565b6115149088612ffa565b61ffff9081169150881681111561152c575061ffff87165b620668a061153e61ffff8916836130ca565b6115499060016130e7565b63ffffffff1661155991906130b3565b5a101561156a576002925050611745565b61157587828661278d565b61158361ffff8816826130ca565b61158d90836130e7565b9150600194508761ffff168163ffffffff1603611708578360118961ffff16815481106115bc576115bc612fb0565b5f918252602091829020835160049092020190815590820151600182015560408201516002820155606090910151600390910155876115fa81613104565b985050611606846128c4565b60035461ffff600160201b9091048116908916036116805763ffffffff8b1661162f838f6130e7565b63ffffffff161461165657604051636f72435d60e01b8152600860048201526024016105e4565b506010805461ffff191661ffff98909816979097179096555060019650939450610c2d9350505050565b5f96506008876006816116948c6001612ffa565b61ffff1661ffff1681526020019081526020015f205f9054906101000a900461ffff1661ffff1661ffff1681526020019081526020015f206040518060800160405290815f8201548152602001600182015481526020016002820154815260200160038201548152505093505f955061173f565b8b63ffffffff168263ffffffff161461173757604051636f72435d60e01b8152600960048201526024016105e4565b809650600195505b506114eb565b63ffffffff8a16611756828e6130e7565b63ffffffff161061177d57604051636f72435d60e01b8152600a60048201526024016105e4565b841561178c5761178c836128c4565b83156117b0578251600c556020830151600d556040830151600e556060830151600f555b6010805461ffff98891661ffff1991821617909155600b805497909816961695909517909555509294509092505050935093915050565b6003805461ff00191661010017908190556001546001600160a01b03169063c4ef91f29061ffff600160201b90910416622579c0611825620eec5090565b6040517fffffffff0000000000000000000000000000000000000000000000000000000060e086901b16815261ffff909316600484015263ffffffff918216602484015216604482015262166a48606482015262018a88608482015283151560a482015260c4015f604051808303815f87803b1580156118a3575f80fd5b505af11580156118b5573d5f803e3d5ffd5b5050505050565b5f80546001600160a01b0383811673ffffffffffffffffffffffffffffffffffffffff19831681178455604051919092169283917f8be0079c531659141344cd1fd0a4f28419497f9722a3daafe3b4186f6b6457e09190a35050565b5f80620271005a10156119305750600290505f610c2d565b60135460145460035461ffff8084169362010000900481169291600160201b90041683108015611970575060035461ffff600160201b9091048116908316105b80156119d0575060035461198f90600160201b900461ffff1680613124565b60035461ffff91821691899185916119af91600160201b90041687613124565b6119b99190612ffa565b61ffff166119c791906130e7565b63ffffffff1611155b6119f057604051636f72435d60e01b8152600e60048201526024016105e4565b6003548290611a0a90600160201b900461ffff1685613124565b611a149190612ffa565b61ffff168863ffffffff1614611a4057604051636f72435d60e01b8152600f60048201526024016105e4565b82825f8080611a565f546001600160a01b031690565b90505b8b63ffffffff168363ffffffff161015611bab575f611ac460118661ffff1681548110611a8857611a88612fb0565b905f5260205f2090600402016003015460065f896001611aa89190612ffa565b61ffff908116825260208201929092526040015f205416612900565b9050611af08160128761ffff1681548110611ae157611ae1612fb0565b905f5260205f200154896112b5565b965084611afc81613104565b60035490965061ffff600160201b9091048116908716039050611b83578660158761ffff1681548110611b3157611b31612fb0565b5f91825260209091200155611b458761132c565b611b4f8783612922565b611b5a600187612ffa565b95505f94507f000000000000000000000000000000000000000000000000000000000000000096505b83611b8d8161314a565b945050620271005a1015611ba5576002925050611bab565b50611a59565b63ffffffff8b16611bbc848f6130e7565b63ffffffff1603611c3d5760035461ffff868116600160201b90920416148015611be8575061ffff8416155b611c0857604051636f72435d60e01b8152601260048201526024016105e4565b50506003546013805464ff0000ffff191661ffff600160201b9384900416179091179055600197509550610c2d945050505050565b60035461ffff600160201b909104811690861610611c7157604051636f72435d60e01b8152601360048201526024016105e4565b8661ffff168461ffff1614611c99576013805463ffff000019166201000061ffff8716021790555b8761ffff168561ffff1614611cba576013805461ffff191661ffff87161790555b6014869055611cc88661132c565b509b909a5098505050505050505050565b5f806203d0905a1015611cf15750600290505f610c2d565b60035460105461ffff908116600160201b90920416148015611d235750600354601154600160201b90910461ffff1611155b611d4357604051636f72435d60e01b8152600b60048201526024016105e4565b845f611d538661ffff84166130e7565b90505f611d675f546001600160a01b031690565b90505f805f808661ffff165f03611ec75760115f81548110611d8b57611d8b612fb0565b905f5260205f20906004020160010154935060115f81548110611db057611db0612fb0565b905f5260205f2090600402015f015492505f611dce856002546112c9565b9050611dd98161132c565b611de38187612922565b611e0f60115f81548110611df957611df9612fb0565b905f5260205f2090600402016003015487612922565b611e3a60115f81548110611e2557611e25612fb0565b905f5260205f2090600402015f015487612922565b8060125f81548110611e4e57611e4e612fb0565b5f9182526020909120015561ffff8716600103611eb9576009859055600a84905563ffffffff8b1661ffff881603611ea657611e8a8487612922565b6013805465ff0000000000191665010000000000179055600191505b50975060019650610c2d95505050505050565b600197506001925050611ed2565b6009549350600a5492505b865b8661ffff168161ffff1610156120a0576203d0905a1015611ef857600291506120a0565b5f60118261ffff1681548110611f1057611f10612fb0565b905f5260205f2090600402016001015490505f60118361ffff1681548110611f3a57611f3a612fb0565b905f5260205f2090600402015f015490505f611f5888600254612930565b9050611f8d81611f88847f000000000000000000000000000000000000000000000000000000000000000061294e565b61297c565b90505f611f9c6002548a612988565b90505f611fd383611fad84886129b1565b7f00000000000000000000000000000000000000000000000000000000000000006112b5565b9050611fdf8a866129df565b9950611fec83858b6112b5565b9850611ff78161132c565b612001818c612922565b61203160118761ffff168154811061201b5761201b612fb0565b905f5260205f209060040201600301548c612922565b61206060118761ffff168154811061204b5761204b612fb0565b905f5260205f2090600402015f01548c612922565b8060128761ffff168154811061207857612078612fb0565b5f918252602090912001558761208d81613104565b9850505050505050806001019050611ed4565b5061ffff8216156120bd576120b48461132c565b6120bd8361132c565b6009849055600a83905563ffffffff8a166120dc61ffff84168e6130e7565b63ffffffff16111561210457604051636f72435d60e01b8152600d60048201526024016105e4565b63ffffffff8a1661211961ffff84168e6130e7565b63ffffffff16036121495761212e8386612922565b506013805465ff000000000019166501000000000017905560015b975061ffff1695505050505050935093915050565b5f80620284885a10156121765750600290505f610c2d565b5f61218185876130e7565b90505f805f6121975f546001600160a01b031690565b90505f808a5b8661ffff168161ffff16101561236b575f6006816121bc846001612ffa565b61ffff908116825260208201929092526040015f2054169050806121f657604051636f72435d60e01b8152600760048201526024016105e4565b61ffff81165f9081526008602052604081208054600182015490995097509061221f8989612a0d565b61ffff84165f908152600560205260408082205490516370a0823160e01b81526001600160a01b03918216600482015292935090916122ab918491908b16906370a0823190602401602060405180830381865afa158015612282573d5f803e3d5ffd5b505050506040513d601f19601f820116820180604052508101906122a69190613162565b612a3b565b90506122d8818b7f00000000000000000000000000000000000000000000000000000000000000006112b5565b9950612305818a7f00000000000000000000000000000000000000000000000000000000000000006112b5565b8a845560018401819055985061231a8a61132c565b6123238961132c565b61232d8a89612922565b6123378989612922565b8661234181613104565b975050620284885a101561235c57600295505050505061236b565b5050505080600101905061219d565b5063ffffffff891661238161ffff84168d6130e7565b63ffffffff1603612390575060015b965061ffff16945050505050935093915050565b5f6112af8260086125f1565b5f8082156123c35750600160f81b6123c6565b505f5b5f8051602061319a83398151915254604051631f31e28560e11b815260048101879052602481018690526001600160f81b0319831660448201525f8051602061317a833981519152916001600160a01b031690633e63c50a906064015b6020604051808303815f875af115801561243f573d5f803e3d5ffd5b505050506040513d601f19601f820116820180604052508101906124639190613162565b9695505050505050565b5f805f8051602061317a833981519152600181015460405163cb3b940760e01b81526004810188905260248101879052604481018690529192506001600160a01b03169063cb3b9407906064016020604051808303815f875af11580156124d6573d5f803e3d5ffd5b505050506040513d601f19601f820116820180604052508101906124fa9190613162565b95945050505050565b5f8082156125165750600160f81b612519565b505f5b5f8051602061319a83398151915254604051632a1f7ab160e21b815260048101879052602481018690526001600160f81b0319831660448201525f8051602061317a833981519152916001600160a01b03169063a87deac490606401612423565b5f80821561258d5750600160f81b612590565b505f5b5f8051602061319a83398151915254604051630d7c62eb60e31b815260048101879052602481018690526001600160f81b0319831660448201525f8051602061317a833981519152916001600160a01b031690636be3175890606401612423565b5f805f8051602061317a8339815191526001810154604051631ce2e8d760e31b8152600481018790526001600160f81b031960f887901b1660248201529192506001600160a01b03169063e71746b8906044016020604051808303815f875af1158015612660573d5f803e3d5ffd5b505050506040513d601f19601f820116820180604052508101906112c19190613162565b5f805f8051602061317a833981519152600181015460405163480694a760e11b81526001600160f81b031960f887901b1660048201529192506001600160a01b03169063900d294e906024016020604051808303815f875af11580156126ec573d5f803e3d5ffd5b505050506040513d601f19601f820116820180604052508101906127109190613162565b9392505050565b5f5f8051602061317a8339815191528054604051631974142760e21b8152600481018690526001600160a01b0385811660248301529293509116906365d0509c906044015f604051808303815f87803b158015612772575f80fd5b505af1158015612784573d5f803e3d5ffd5b50505050505050565b6127b460405180608001604052805f81526020015f81526020015f81526020015f81525090565b835b8361ffff168161ffff1610156118b5575f6127d082612a59565b805460018201546003830154875193945091929091905f9081906127f590869061294e565b90505f612805868b5f01516112e7565b90505f612816858c60600151612a84565b905061282b83612826848461297c565b612ab2565b935050505061283e81858a5f01516112b5565b8752602088015161285290829085906112b5565b6020880152606088015161286990829084906112b5565b6060880152875161287c908290866112b5565b8852602088015161288f908290856112b5565b602089015260608801516128a5908290846112b5565b60608901526128b48688612abe565b50505050508060010190506127b6565b80516128cf9061132c565b6128dc816020015161132c565b6128e9816060015161132c565b60408101511561111657611116816040015161132c565b5f826129125761290f5f611315565b92505b6112ac838361ffff16600161257a565b61292c8282612717565b5050565b5f826129425761293f5f6123a4565b92505b6112ac83836001612b14565b5f826129605761295d5f6123a4565b92505b816129715761296e5f6123a4565b91505b6112ac83835f6123b0565b5f6112ac83835f612b8b565b5f80612993846123a4565b9050826129a6576129a35f6123a4565b92505b6112c181845f612c02565b5f826129c3576129c05f6123a4565b92505b816129d4576129d15f6123a4565b91505b6112ac83835f612503565b5f826129f1576129ee5f6123a4565b92505b81612a02576129ff5f6123a4565b91505b6112ac83835f612c79565b5f82612a1f57612a1c5f6123a4565b92505b81612a3057612a2d5f6123a4565b91505b6112ac83835f612cf0565b5f82612a4d57612a4a5f6123a4565b92505b6112ac83836001612d67565b5f60118261ffff1681548110612a7157612a71612fb0565b905f5260205f2090600402019050919050565b5f82612a9657612a935f611315565b92505b81612aa757612aa45f611315565b91505b6112ac83835f612b14565b5f6112ac83835f612dde565b8060118361ffff1681548110612ad657612ad6612fb0565b905f5260205f2090600402015f820151815f015560208201518160010155604082015181600201556060820151816003015590505061292c816128c4565b5f808215612b275750600160f81b612b2a565b505f5b5f8051602061319a83398151915254604051639675211f60e01b815260048101879052602481018690526001600160f81b0319831660448201525f8051602061317a833981519152916001600160a01b031690639675211f90606401612423565b5f808215612b9e5750600160f81b612ba1565b505f5b5f8051602061319a83398151915254604051630ccd46b160e31b815260048101879052602481018690526001600160f81b0319831660448201525f8051602061317a833981519152916001600160a01b03169063666a358890606401612423565b5f808215612c155750600160f81b612c18565b505f5b5f8051602061319a83398151915254604051638c14cc2160e01b815260048101879052602481018690526001600160f81b0319831660448201525f8051602061317a833981519152916001600160a01b031690638c14cc2190606401612423565b5f808215612c8c5750600160f81b612c8f565b505f5b5f8051602061319a8339815191525460405163f953e42760e01b815260048101879052602481018690526001600160f81b0319831660448201525f8051602061317a833981519152916001600160a01b03169063f953e42790606401612423565b5f808215612d035750600160f81b612d06565b505f5b5f8051602061319a8339815191525460405163816d57d360e01b815260048101879052602481018690526001600160f81b0319831660448201525f8051602061317a833981519152916001600160a01b03169063816d57d390606401612423565b5f808215612d7a5750600160f81b612d7d565b505f5b5f8051602061319a833981519152546040516334a6d7b960e11b815260048101879052602481018690526001600160f81b0319831660448201525f8051602061317a833981519152916001600160a01b03169063694daf7290606401612423565b5f808215612df15750600160f81b612df4565b505f5b5f8051602061319a83398151915254604051633b1015f760e21b815260048101879052602481018690526001600160f81b0319831660448201525f8051602061317a833981519152916001600160a01b03169063ec4057dc90606401612423565b803561ffff81168114612e66575f80fd5b919050565b5f60208284031215612e7b575f80fd5b6112ac82612e55565b80356001600160a01b0381168114612e66575f80fd5b5f805f60608486031215612eac575f80fd5b612eb584612e84565b95602085013595506040909401359392505050565b803563ffffffff81168114612e66575f80fd5b5f805f60608486031215612eef575f80fd5b612ef884612eca565b9250612f0660208501612eca565b9150612f1460408501612eca565b90509250925092565b5f60208284031215612f2d575f80fd5b6112ac82612e84565b5f8060408385031215612f47575f80fd5b82359150612f5760208401612e55565b90509250929050565b67ffffffffffffffff81168114611116575f80fd5b5f8060408385031215612f86575f80fd5b8235612f9181612f60565b915060208301358015158114612fa5575f80fd5b809150509250929050565b634e487b7160e01b5f52603260045260245ffd5b634e487b7160e01b5f52601160045260245ffd5b61ffff828116828216039080821115612ff357612ff3612fc4565b5092915050565b61ffff818116838216019080821115612ff357612ff3612fc4565b634e487b7160e01b5f52602160045260245ffd5b5f8261304357634e487b7160e01b5f52601260045260245ffd5b500490565b5f805f6060848603121561305a575f80fd5b835160ff8116811461306a575f80fd5b602085015190935061307b81612f60565b604085015190925061308c81612f60565b809150509250925092565b5f61ffff8216806130aa576130aa612fc4565b5f190192915050565b80820281158282048414176112af576112af612fc4565b63ffffffff828116828216039080821115612ff357612ff3612fc4565b63ffffffff818116838216019080821115612ff357612ff3612fc4565b5f61ffff80831681810361311a5761311a612fc4565b6001019392505050565b61ffff81811683821602808216919082811461314257613142612fc4565b505092915050565b5f63ffffffff80831681810361311a5761311a612fc4565b5f60208284031215613172575f80fd5b505191905056feed8d60e34876f751cc8b014c560745351147d9de11b9347c854e881b128ea600ed8d60e34876f751cc8b014c560745351147d9de11b9347c854e881b128ea601a164736f6c6343000818000aed8d60e34876f751cc8b014c560745351147d9de11b9347c854e881b128ea600a164736f6c6343000818000a",
  "devdoc": {
    "errors": {
      "OwnableInvalidOwner(address)": [
        {
          "details": "The owner is not a valid owner account. (eg. `address(0)`)"
        }
      ],
      "OwnableUnauthorizedAccount(address)": [
        {
          "details": "The caller account is not authorized to perform an operation."
        }
      ]
    },
    "kind": "dev",
    "methods": {
      "acceptOwnership()": {
        "details": "The new owner accepts the ownership transfer."
      },
      "createNewEngine(address)": {
        "details": "Deploys a new FHEAuctionEngine contract. - engine.owner() == `auctionAddr`"
      },
      "owner()": {
        "details": "Returns the address of the current owner."
      },
      "pendingOwner()": {
        "details": "Returns the address of the pending owner."
      },
      "renounceOwnership()": {
        "details": "Leaves the contract without owner. It will not be possible to call `onlyOwner` functions. Can only be called by the current owner. NOTE: Renouncing ownership will leave the contract without an owner, thereby disabling any functionality that is only available to the owner."
      },
      "transferOwnership(address)": {
        "details": "Starts the ownership transfer of the contract to a new account. Replaces the pending transfer if there is one. Can only be called by the current owner. Setting `newOwner` to the zero address is allowed; this can be used to cancel an initiated ownership transfer."
      }
    },
    "version": 1
  },
  "userdoc": {
    "kind": "user",
    "methods": {},
    "version": 1
  },
  "storageLayout": {
    "storage": [
      {
        "astId": 8,
        "contract": "contracts/engines/factories/FHEAuctionEnginePriceIdFactory.sol:FHEAuctionEnginePriceIdFactory",
        "label": "_owner",
        "offset": 0,
        "slot": "0",
        "type": "t_address"
      },
      {
        "astId": 156,
        "contract": "contracts/engines/factories/FHEAuctionEnginePriceIdFactory.sol:FHEAuctionEnginePriceIdFactory",
        "label": "_pendingOwner",
        "offset": 0,
        "slot": "1",
        "type": "t_address"
      },
      {
        "astId": 9086,
        "contract": "contracts/engines/factories/FHEAuctionEnginePriceIdFactory.sol:FHEAuctionEnginePriceIdFactory",
        "label": "_iteratorFactory",
        "offset": 0,
        "slot": "2",
        "type": "t_contract(FHEAuctionEngineIteratorFactory)9200"
      }
    ],
    "types": {
      "t_address": {
        "encoding": "inplace",
        "label": "address",
        "numberOfBytes": "20"
      },
      "t_contract(FHEAuctionEngineIteratorFactory)9200": {
        "encoding": "inplace",
        "label": "contract FHEAuctionEngineIteratorFactory",
        "numberOfBytes": "20"
      }
    }
  }
}