{
  "address": "0x34959F05DfC1e91C7bc2a1B615eB19f7832544eA",
  "abi": [
    {
      "inputs": [
        {
          "components": [
            {
              "internalType": "contract FHEAuctionEngineFactory",
              "name": "enginePriceIdFactory",
              "type": "address"
            },
            {
              "internalType": "contract FHEAuctionEngineFactory",
              "name": "enginePriceQuantityIdFactory",
              "type": "address"
            },
            {
              "internalType": "contract FHEAuctionEngineFactory",
              "name": "enginePriceRandomFactory",
              "type": "address"
            },
            {
              "internalType": "contract FHEAuctionEngineFactory",
              "name": "engineProRataFactory",
              "type": "address"
            }
          ],
          "internalType": "struct FHEAuctionFactory.FHEAuctionFactoryDetails",
          "name": "details_",
          "type": "tuple"
        }
      ],
      "stateMutability": "nonpayable",
      "type": "constructor"
    },
    {
      "inputs": [],
      "name": "Create2EmptyBytecode",
      "type": "error"
    },
    {
      "inputs": [],
      "name": "FailedDeployment",
      "type": "error"
    },
    {
      "inputs": [
        {
          "internalType": "uint256",
          "name": "balance",
          "type": "uint256"
        },
        {
          "internalType": "uint256",
          "name": "needed",
          "type": "uint256"
        }
      ],
      "name": "InsufficientBalance",
      "type": "error"
    },
    {
      "inputs": [
        {
          "internalType": "address",
          "name": "owner",
          "type": "address"
        }
      ],
      "name": "OwnableInvalidOwner",
      "type": "error"
    },
    {
      "inputs": [
        {
          "internalType": "address",
          "name": "account",
          "type": "address"
        }
      ],
      "name": "OwnableUnauthorizedAccount",
      "type": "error"
    },
    {
      "anonymous": false,
      "inputs": [
        {
          "indexed": true,
          "internalType": "address",
          "name": "auction_",
          "type": "address"
        },
        {
          "indexed": true,
          "internalType": "bytes32",
          "name": "salt_",
          "type": "bytes32"
        },
        {
          "indexed": false,
          "internalType": "address",
          "name": "beneficiary_",
          "type": "address"
        },
        {
          "indexed": false,
          "internalType": "address",
          "name": "auctionToken_",
          "type": "address"
        },
        {
          "indexed": false,
          "internalType": "address",
          "name": "paymentToken_",
          "type": "address"
        }
      ],
      "name": "FHEAuctionERC20Deployed",
      "type": "event"
    },
    {
      "anonymous": false,
      "inputs": [
        {
          "indexed": true,
          "internalType": "address",
          "name": "previousOwner",
          "type": "address"
        },
        {
          "indexed": true,
          "internalType": "address",
          "name": "newOwner",
          "type": "address"
        }
      ],
      "name": "OwnershipTransferStarted",
      "type": "event"
    },
    {
      "anonymous": false,
      "inputs": [
        {
          "indexed": true,
          "internalType": "address",
          "name": "previousOwner",
          "type": "address"
        },
        {
          "indexed": true,
          "internalType": "address",
          "name": "newOwner",
          "type": "address"
        }
      ],
      "name": "OwnershipTransferred",
      "type": "event"
    },
    {
      "inputs": [],
      "name": "acceptOwnership",
      "outputs": [],
      "stateMutability": "nonpayable",
      "type": "function"
    },
    {
      "inputs": [
        {
          "internalType": "bytes32",
          "name": "salt_",
          "type": "bytes32"
        },
        {
          "internalType": "address",
          "name": "beneficiary_",
          "type": "address"
        },
        {
          "internalType": "address",
          "name": "auctionToken_",
          "type": "address"
        },
        {
          "internalType": "address",
          "name": "paymentToken_",
          "type": "address"
        },
        {
          "internalType": "uint256",
          "name": "minimumPaymentDeposit_",
          "type": "uint256"
        },
        {
          "internalType": "uint256",
          "name": "paymentPenalty_",
          "type": "uint256"
        }
      ],
      "name": "computeAuctionAddress",
      "outputs": [
        {
          "internalType": "address",
          "name": "",
          "type": "address"
        }
      ],
      "stateMutability": "view",
      "type": "function"
    },
    {
      "inputs": [
        {
          "internalType": "address",
          "name": "auctionOwner_",
          "type": "address"
        },
        {
          "internalType": "bytes32",
          "name": "salt_",
          "type": "bytes32"
        },
        {
          "internalType": "address",
          "name": "beneficiary_",
          "type": "address"
        },
        {
          "internalType": "uint256",
          "name": "auctionQuantity_",
          "type": "uint256"
        },
        {
          "internalType": "address",
          "name": "auctionToken_",
          "type": "address"
        },
        {
          "internalType": "uint16",
          "name": "maxBidCount_",
          "type": "uint16"
        },
        {
          "internalType": "uint8",
          "name": "tieBreakingRule_",
          "type": "uint8"
        },
        {
          "internalType": "address",
          "name": "paymentToken_",
          "type": "address"
        },
        {
          "internalType": "uint256",
          "name": "minimumPaymentDeposit_",
          "type": "uint256"
        },
        {
          "internalType": "uint256",
          "name": "paymentPenalty_",
          "type": "uint256"
        }
      ],
      "name": "createNewAuction",
      "outputs": [
        {
          "internalType": "address",
          "name": "",
          "type": "address"
        }
      ],
      "stateMutability": "nonpayable",
      "type": "function"
    },
    {
      "inputs": [
        {
          "internalType": "bytes32",
          "name": "salt_",
          "type": "bytes32"
        },
        {
          "internalType": "address",
          "name": "beneficiary_",
          "type": "address"
        },
        {
          "internalType": "address",
          "name": "auctionToken_",
          "type": "address"
        },
        {
          "internalType": "address",
          "name": "paymentToken_",
          "type": "address"
        }
      ],
      "name": "getAuction",
      "outputs": [
        {
          "internalType": "address",
          "name": "",
          "type": "address"
        }
      ],
      "stateMutability": "view",
      "type": "function"
    },
    {
      "inputs": [],
      "name": "isNative",
      "outputs": [
        {
          "internalType": "bool",
          "name": "",
          "type": "bool"
        }
      ],
      "stateMutability": "view",
      "type": "function"
    },
    {
      "inputs": [],
      "name": "owner",
      "outputs": [
        {
          "internalType": "address",
          "name": "",
          "type": "address"
        }
      ],
      "stateMutability": "view",
      "type": "function"
    },
    {
      "inputs": [],
      "name": "pendingOwner",
      "outputs": [
        {
          "internalType": "address",
          "name": "",
          "type": "address"
        }
      ],
      "stateMutability": "view",
      "type": "function"
    },
    {
      "inputs": [],
      "name": "renounceOwnership",
      "outputs": [],
      "stateMutability": "nonpayable",
      "type": "function"
    },
    {
      "inputs": [
        {
          "internalType": "address",
          "name": "newOwner",
          "type": "address"
        }
      ],
      "name": "transferOwnership",
      "outputs": [],
      "stateMutability": "nonpayable",
      "type": "function"
    }
  ],
  "transactionHash": "0x6a645403e359abbc1c1179f9d1c6e91d79700157cb4d46111042b4e179d46b83",
  "args": [
    {
      "enginePriceIdFactory": "0xCf779bDD04dc7194a4f16e6Fb799aF5a7C5F9502",
      "enginePriceQuantityIdFactory": "0xB82Ca061bA79bcd54eab0b5c9062A3f779292647",
      "enginePriceRandomFactory": "0x598D7008a58241315d2784d2B84dD96d191dAa3C",
      "engineProRataFactory": "0x1a3DB8314C298eEA23E18FE4DA2187d2770226CC"
    }
  ],
  "numDeployments": 1,
  "solcInputHash": "7f1d2ee767592f15145b80b3c07e9f87",
  "bytecode": "0x608060405234801562000010575f80fd5b5060405162004dfe38038062004dfe8339810160408190526200003391620004ab565b8033806200005b57604051631e4fbdf760e01b81525f60048201526024015b60405180910390fd5b620000668162000429565b5080516001600160a01b0316156200016857336001600160a01b0316815f01516001600160a01b0316638da5cb5b6040518163ffffffff1660e01b8152600401602060405180830381865afa158015620000c2573d5f803e3d5ffd5b505050506040513d601f19601f82011682018060405250810190620000e8919062000543565b6001600160a01b0316146200011f57335b60405163118cdaa760e01b81526001600160a01b03909116600482015260240162000052565b80515f805260026020527fac33ff75c19e70fe83507db0d683fd3465c996598dc972688b7ace676c89077b80546001600160a01b0319166001600160a01b039092169190911790555b60208101516001600160a01b0316156200025157336001600160a01b031681602001516001600160a01b0316638da5cb5b6040518163ffffffff1660e01b8152600401602060405180830381865afa158015620001c7573d5f803e3d5ffd5b505050506040513d601f19601f82011682018060405250810190620001ed919062000543565b6001600160a01b031614620002035733620000f9565b60208181015160015f5260029091527fe90b7bceb6e7df5418fb78d8ee546e97c83a08bbccc01a0644d599ccd2a7c2e080546001600160a01b0319166001600160a01b039092169190911790555b60408101516001600160a01b0316156200033957336001600160a01b031681604001516001600160a01b0316638da5cb5b6040518163ffffffff1660e01b8152600401602060405180830381865afa158015620002b0573d5f803e3d5ffd5b505050506040513d601f19601f82011682018060405250810190620002d6919062000543565b6001600160a01b031614620002ec5733620000f9565b604081015160025f8190526020527f679795a0195a1b76cdebb7c51d74e058aee92919b8c3389af86ef24535e8a28c80546001600160a01b0319166001600160a01b039092169190911790555b60608101516001600160a01b0316156200042157336001600160a01b031681606001516001600160a01b0316638da5cb5b6040518163ffffffff1660e01b8152600401602060405180830381865afa15801562000398573d5f803e3d5ffd5b505050506040513d601f19601f82011682018060405250810190620003be919062000543565b6001600160a01b031614620003d45733620000f9565b606081015160035f5260026020527f88601476d11616a71c5be67555bd1dff4b1cbf21533d2669b768b61518cfe1c380546001600160a01b0319166001600160a01b039092169190911790555b505062000568565b600180546001600160a01b0319169055620004448162000447565b50565b5f80546001600160a01b038381166001600160a01b0319831681178455604051919092169283917f8be0079c531659141344cd1fd0a4f28419497f9722a3daafe3b4186f6b6457e09190a35050565b6001600160a01b038116811462000444575f80fd5b5f60808284031215620004bc575f80fd5b604051608081016001600160401b0381118282101715620004eb57634e487b7160e01b5f52604160045260245ffd5b6040528251620004fb8162000496565b815260208301516200050d8162000496565b60208201526040830151620005228162000496565b60408201526060830151620005378162000496565b60608201529392505050565b5f6020828403121562000554575f80fd5b8151620005618162000496565b9392505050565b61488880620005765f395ff3fe608060405234801562000010575f80fd5b5060043610620000ac575f3560e01c80638da5cb5b116200007b578063e30c3978116200005f578063e30c39781462000131578063e70edec61462000143578063f2fde38b146200015a575f80fd5b80638da5cb5b146200010957806396612618146200011a575f80fd5b806311608c6e14620000b0578063715018a614620000e457806373cfc6b214620000f057806379ba509714620000ff575b5f80fd5b620000c7620000c1366004620009c5565b62000171565b6040516001600160a01b0390911681526020015b60405180910390f35b620000ee62000245565b005b6040515f8152602001620000db565b620000ee6200025c565b5f546001600160a01b0316620000c7565b620000c76200012b36600462000a2d565b620002a8565b6001546001600160a01b0316620000c7565b620000c76200015436600462000a84565b62000317565b620000ee6200016b36600462000b3c565b620006e6565b6040805160208082018990526001600160a01b0380891683850152808816606084015286166080808401919091528351808403909101815260a090920190925280519101205f905f620001c362000759565b60408051602081018890529081018690526001600160a01b03881660608201529091505f9060800160405160208183030381529060405290505f82826040516020016200021292919062000b89565b60405160208183030381529060405290506200023684828051906020012062000785565b9b9a5050505050505050505050565b6200024f6200079a565b6200025a5f620007c8565b565b60015433906001600160a01b031681146200029a5760405163118cdaa760e01b81526001600160a01b03821660048201526024015b60405180910390fd5b620002a581620007c8565b50565b6040805160208082018790526001600160a01b0380871683850152808616606084015284166080808401919091528351808403909101815260a090920190925280519101205f906200030e905f908152600360205260409020546001600160a01b031690565b95945050505050565b6040805160208082018c90526001600160a01b03808c1683850152808a16606084015286166080808401919091528351808403909101815260a090920190925280519101205f90819081905f818152600360205260409020549091506001600160a01b031615620003cb5760405162461bcd60e51b815260206004820152601860248201527f61756374696f6e20616c7265616479206465706c6f7965640000000000000000604482015260640162000291565b5f620003d662000759565b60408051602081018990529081018790526001600160a01b03891660608201529091505f9060800160405160208183030381529060405290505f82826040516020016200042592919062000b89565b60405160208183030381529060405290505f6200044a85838051906020012062000785565b9050620004588582620007e3565b620004655f868462000876565b9550806001600160a01b0316866001600160a01b031614620004f05760405162461bcd60e51b815260206004820152602960248201527f50616e69633a2061756374696f6e4164647220213d20636f6d7075746564417560448201527f6374696f6e416464720000000000000000000000000000000000000000000000606482015260840162000291565b50505050505f620005188760ff165f908152600260205260409020546001600160a01b031690565b6040516307e1c07160e41b81526001600160a01b0384811660048301529190911690637e1c0710906024016020604051808303815f875af115801562000560573d5f803e3d5ffd5b505050506040513d601f19601f8201168201806040525081019062000586919062000ba9565b60405163200bd8a760e11b81526001600160a01b0380831660048301528d811660248301528b81166044830152606482018d905261ffff8b1660848301529192508391821690634017b14e9060a4015f604051808303815f87803b158015620005ed575f80fd5b505af115801562000600573d5f803e3d5ffd5b50505050806001600160a01b031663f2fde38b8f6040518263ffffffff1660e01b81526004016200064091906001600160a01b0391909116815260200190565b5f604051808303815f87803b15801562000658575f80fd5b505af11580156200066b573d5f803e3d5ffd5b505050508c836001600160a01b03167fa7757b90dde4f2e2641fcd96790865099c49576f119cc5190952a39a7f8f6a2d8e8d8b604051620006cc939291906001600160a01b0393841681529183166020830152909116604082015260600190565b60405180910390a350909c9b505050505050505050505050565b620006f06200079a565b600180546001600160a01b0383166001600160a01b03199091168117909155620007215f546001600160a01b031690565b6001600160a01b03167f38d16b8cac22d99fc7c124b9cd0de2d3fa1faef420bfe791d8c362d765e2270060405160405180910390a350565b6060604051806020016200076d9062000990565b601f1982820381018352601f90910116604052919050565b5f620007938383306200090f565b9392505050565b5f546001600160a01b031633146200025a5760405163118cdaa760e01b815233600482015260240162000291565b600180546001600160a01b0319169055620002a58162000941565b5f828152600360205260409020546001600160a01b031615620008495760405162461bcd60e51b815260206004820152601860248201527f41756374696f6e20616c7265616479206465706c6f7965640000000000000000604482015260640162000291565b5f9182526003602052604090912080546001600160a01b0319166001600160a01b03909216919091179055565b5f83471015620008a35760405163cf47918160e01b81524760048201526024810185905260440162000291565b81515f03620008c557604051631328927760e21b815260040160405180910390fd5b8282516020840186f590503d151981151615620008e7576040513d5f823e3d81fd5b6001600160a01b038116620007935760405163b06ebf3d60e01b815260040160405180910390fd5b5f604051836040820152846020820152828152600b8101905060ff8153605590206001600160a01b0316949350505050565b5f80546001600160a01b038381166001600160a01b0319831681178455604051919092169283917f8be0079c531659141344cd1fd0a4f28419497f9722a3daafe3b4186f6b6457e09190a35050565b613cb48062000bc883390190565b6001600160a01b0381168114620002a5575f80fd5b8035620009c0816200099e565b919050565b5f805f805f8060c08789031215620009db575f80fd5b863595506020870135620009ef816200099e565b9450604087013562000a01816200099e565b9350606087013562000a13816200099e565b9598949750929560808101359460a0909101359350915050565b5f805f806080858703121562000a41575f80fd5b84359350602085013562000a55816200099e565b9250604085013562000a67816200099e565b9150606085013562000a79816200099e565b939692955090935050565b5f805f805f805f805f806101408b8d03121562000a9f575f80fd5b8a3562000aac816200099e565b995060208b0135985060408b013562000ac5816200099e565b975060608b0135965060808b013562000ade816200099e565b955060a08b013561ffff8116811462000af5575f80fd5b945060c08b013560ff8116811462000b0b575f80fd5b935062000b1b60e08c01620009b3565b92506101008b013591506101208b013590509295989b9194979a5092959850565b5f6020828403121562000b4d575f80fd5b813562000793816200099e565b5f81515f5b8181101562000b7b576020818501810151868301520162000b5f565b505f93019283525090919050565b5f62000ba162000b9a838662000b5a565b8462000b5a565b949350505050565b5f6020828403121562000bba575f80fd5b815162000793816200099e56fe60e060405234801562000010575f80fd5b5060405162003cb438038062003cb48339810160408190526200003391620002ee565b828233620001b2620000d6604080516080810182525f808252602082018190529181018290526060810191909152506040805160808101825273fee8407e2f5e3ee68ad77cae98c434e637f516e5815273687408ab54661ba0b4aef3a44156c616c6955e07602082015273fb03be574d14c256d56f09a198b586bdfc0a9de291810191909152739d6891a6240d6130c54ae243d8005063d05fe14b606082015290565b80517fed8d60e34876f751cc8b014c560745351147d9de11b9347c854e881b128ea60080546001600160a01b03199081166001600160a01b039384161790915560208301517fed8d60e34876f751cc8b014c560745351147d9de11b9347c854e881b128ea6018054831691841691909117905560408301517fed8d60e34876f751cc8b014c560745351147d9de11b9347c854e881b128ea6028054831691841691909117905560608301517fed8d60e34876f751cc8b014c560745351147d9de11b9347c854e881b128ea6038054909216921691909117905550565b7f93ab6e17f2c461cce6ea5d4ec117e51dda77a64affc2b2c05f8cd440def0e70080546001600160a01b0319167333347831500f1e73f0cccbb95c9f86b94d7b11231790556001600160a01b0381166200022657604051631e4fbdf760e01b81525f60048201526024015b60405180910390fd5b620002318162000295565b50600160045581811115620002645760405163c5e0e1ed60e01b815260048101839052602481018290526044016200021d565b60a0919091526080526001600160a01b03811662000280575f80fd5b6001600160a01b031660c05250620003329050565b600380546001600160a01b03838116610100818102610100600160a81b031985161790945560405193909204169182907f8be0079c531659141344cd1fd0a4f28419497f9722a3daafe3b4186f6b6457e0905f90a35050565b5f805f6060848603121562000301575f80fd5b83516020850151604086015191945092506001600160a01b038116811462000327575f80fd5b809150509250925092565b60805160a05160c05161391f620003955f395f818161049201528181612c5501528181612f740152818161300e015261309201525f81816105a201528181610ad601528181612cc20152612cfe01525f818161055c0152612672015261391f5ff3fe608060405234801561000f575f80fd5b5060043610610393575f3560e01c80636dc7a627116101df578063bb4872de11610109578063da85c34e116100a9578063ec4e272711610079578063ec4e272714610779578063f2fde38b14610793578063f7decfcc146107a6578063fca2cc71146107b9575f80fd5b8063da85c34e14610747578063e0f054121461075a578063e70b279d14610762578063ec3090381461076e575f80fd5b8063c7c3b1c1116100e4578063c7c3b1c114610713578063c9d4623f1461071b578063cfc771b01461072c578063d0aecc3a1461073f575f80fd5b8063bb4872de146106ee578063bbe457ac146106f9578063bbeee6d11461070b575f80fd5b80638da5cb5b1161017f5780639b3570071161014f5780639b357007146106ad5780639dce4612146106c0578063b40a5627146106d3578063b6b55f25146106db575f80fd5b80638da5cb5b14610676578063938328361461068c5780639435c8871461069457806399fdb3201461069c575f80fd5b806373cfc6b2116101ba57806373cfc6b21461063b578063780278a41461064157806378e9792514610654578063844dc1191461065b575f80fd5b80636dc7a6271461060357806370a082311461060b578063715018a614610633575f80fd5b806339bf9a77116102c05780634e71d92d11610260578063597e1fb511610230578063597e1fb5146105905780635c94cb0c14610598578063636bfbab146105a05780636b22ce24146105c6575f80fd5b80634e71d92d146105525780634e80b9e41461055a5780634e8602bd146105805780634fef7c3314610588575f80fd5b8063430aabed1161029b578063430aabed1461050657806347535d7b1461052f5780634b585d2d146105375780634e6719ac1461054a575f80fd5b806339bf9a77146104e35780634017b14e146104eb5780634265da2f146104fe575f80fd5b806326562dac116103365780632e1a7d4d116103065780632e1a7d4d1461047d5780633013ce29146104905780633197cbb6146104ca57806338af3eed146104d2575f80fd5b806326562dac1461041e5780632743c6951461044c57806327c1c21d1461046d5780632de40ce314610475575f80fd5b80630c08bf88116103715780630c08bf88146103e9578063158ef93e146103f1578063194307bf146103fb57806323e45f6214610408575f80fd5b806302dda9cf1461039757806307da68f5146103b4578063099a019d146103be575b5f80fd5b61039f6107cc565b60405190151581526020015b60405180910390f35b6103bc610873565b005b335f9081526018602052604090208054600190910154604080519283526020830191909152016103ab565b6103bc6108f9565b600254151561039f565b600254600816151561039f565b610410610993565b6040519081526020016103ab565b61039f61042c366004613371565b6001600160a01b03165f9081526016602052604090205460ff1660011490565b6104546109fe565b60405167ffffffffffffffff90911681526020016103ab565b610410610a69565b61039f610a72565b6103bc61048b36600461338c565b610a7c565b7f00000000000000000000000000000000000000000000000000000000000000005b6040516001600160a01b0390911681526020016103ab565b600154610410565b6011546001600160a01b03166104b2565b6103bc610c68565b6103bc6104f93660046133b2565b610e09565b61045461108e565b61039f610514366004613416565b61ffff165f9081526017602052604090205460ff1660011490565b61039f6110d5565b6103bc61054536600461343e565b6110e6565b601354610410565b6103bc61112b565b7f0000000000000000000000000000000000000000000000000000000000000000610410565b6104106112f0565b6103bc611300565b61039f611469565b61039f611474565b7f0000000000000000000000000000000000000000000000000000000000000000610410565b6105d96105d4366004613481565b6114ed565b6040805160ff909416845267ffffffffffffffff92831660208501529116908201526060016103ab565b61039f611609565b610410610619366004613371565b6001600160a01b03165f9081526019602052604090205490565b6103bc611640565b5f61039f565b6103bc61064f366004613416565b611651565b5f54610410565b6106636116ca565b60405161ffff90911681526020016103ab565b60035461010090046001600160a01b03166104b2565b610410611735565b6103bc61177c565b6012546001600160a01b03166104b2565b6103bc6106bb3660046134ad565b61179d565b6103bc6106ce3660046134d6565b6117f9565b610663611834565b6103bc6106e936600461338c565b61187b565b60035460ff1661039f565b60145462010000900461ffff16610663565b61039f611895565b61039f6118ad565b600f546001600160a01b03166104b2565b6103bc61073a3660046134f6565b611912565b61039f61197b565b6103bc610755366004613575565b6119b0565b6104546119e3565b60145461ffff16610663565b60025460011461039f565b335f9081526015602052604090205461ffff16151561039f565b6103bc6107a1366004613371565b611a2a565b6103bc6107b43660046135cb565b611a64565b61039f6107c7366004613416565b611a8b565b5f6107d5611469565b6107f2576040516345a5a96f60e11b815260040160405180910390fd5b6107fa611ac0565b600f5f9054906101000a90046001600160a01b03166001600160a01b03166302dda9cf6040518163ffffffff1660e01b8152600401602060405180830381865afa15801561084a573d5f803e3d5ffd5b505050506040513d601f19601f8201168201806040525081019061086e919061361a565b905090565b61087b611ae7565b610883611b1a565b61088b611b44565b600f5f9054906101000a90046001600160a01b03166001600160a01b03166343d726d66040518163ffffffff1660e01b81526004015f604051808303815f87803b1580156108d7575f80fd5b505af11580156108e9573d5f803e3d5ffd5b505050506108f76001600455565b565b610901611ae7565b610909611b1a565b610911611b70565b6011546012546040516370a0823160e01b8152306004820152610989926001600160a01b039081169216906370a0823190602401602060405180830381865afa158015610960573d5f803e3d5ffd5b505050506040513d601f19601f820116820180604052508101906109849190613635565b611bad565b6108f76001600455565b600f54604080516311f22fb160e11b815290515f926001600160a01b0316916323e45f629160048083019260209291908290030181865afa1580156109da573d5f803e3d5ffd5b505050506040513d601f19601f8201168201806040525081019061086e9190613635565b60105460408051631606240760e01b815290515f926001600160a01b03169163160624079160048083019260209291908290030181865afa158015610a45573d5f803e3d5ffd5b505050506040513d601f19601f8201168201806040525081019061086e919061364c565b5f61086e611d87565b5f61086e33611dab565b610a84611b1a565b6002610a8e611d87565b1615610aad57604051636f312cbd60e01b815260040160405180910390fd5b335f610ab882611dab565b6001600160a01b0383165f90815260196020526040902054909150807f00000000000000000000000000000000000000000000000000000000000000008315610b9b57610b03611e23565b80831015610b8e578215610b845760405162461bcd60e51b815260206004820152602a60248201527f50616e69633a2062616c616e6365203e20302026262062616c616e6365203c2060448201527f6d696e4465706f7369740000000000000000000000000000000000000000000060648201526084015b60405180910390fd5b5050505050610c5b565b610b98818361367b565b91505b81861115610ba7578195505b855f03610bb8575050505050610c5b565b610bc28587611e4b565b8315610c55576001600160a01b0385165f90815260196020526040902054811115610c555760405162461bcd60e51b815260206004820152602560248201527f50616e69633a205f62616c616e6365735b6269646465725d203c206d696e446560448201527f706f7369740000000000000000000000000000000000000000000000000000006064820152608401610b7b565b50505050505b610c656001600455565b50565b610c70611ae7565b610c78611b1a565b600254610c98576040516321c4e35760e21b815260040160405180910390fd5b600f5460408051634377536160e11b815290515f926001600160a01b0316916386eea6c29160048083019260209291908290030181865afa158015610cdf573d5f803e3d5ffd5b505050506040513d601f19601f82011682018060405250810190610d039190613635565b905080610d235760405163ce346a3560e01b815260040160405180910390fd5b610d2d8130611e56565b610d9f5760405162461bcd60e51b815260206004820152603160248201527f50616e69633a20544648452e6973416c6c6f7765642870752c2061646472657360448201527f7328746869732929203d3d2066616c73650000000000000000000000000000006064820152608401610b7b565b6040805160018082528183019092525f916020808301908036833701905050905081815f81518110610dd357610dd361368e565b6020908102919091010152610dfc81634ee7230960e11b5f610df64260646136a2565b5f611e68565b5050506108f76001600455565b610e11611ae7565b610e19611b1a565b6001600160a01b0385161580610ea05750306001600160a01b0316856001600160a01b0316638da5cb5b6040518163ffffffff1660e01b8152600401602060405180830381865afa158015610e70573d5f803e3d5ffd5b505050506040513d601f19601f82011682018060405250810190610e9491906136b5565b6001600160a01b031614155b15610ec95760405163e9c5008f60e01b81526001600160a01b0386166004820152602401610b7b565b6001600160a01b038416610efb57604051631a3b45fd60e01b81526001600160a01b0385166004820152602401610b7b565b6001600160a01b038316610f2d57604051630db57ed560e01b81526001600160a01b0384166004820152602401610b7b565b815f03610f5057604051630ea0fe6d60e21b815260048101839052602401610b7b565b610f58611f92565b600f80546001600160a01b0387811673ffffffffffffffffffffffffffffffffffffffff199283168117909355601180548883169084161790556012805491871691909216179055604051631f29034760e21b81526004810184905261ffff83166024820152637ca40d1c906044015f604051808303815f87803b158015610fde575f80fd5b505af1158015610ff0573d5f803e3d5ffd5b50505050846001600160a01b031663fddcc1486040518163ffffffff1660e01b8152600401602060405180830381865afa158015611030573d5f803e3d5ffd5b505050506040513d601f19601f8201168201806040525081019061105491906136b5565b6010805473ffffffffffffffffffffffffffffffffffffffff19166001600160a01b039290921691909117905560016004555b5050505050565b60105460408051634265da2f60e01b815290515f926001600160a01b031691634265da2f9160048083019260209291908290030181865afa158015610a45573d5f803e3d5ffd5b5f60036110e0611d87565b14905090565b6110ee611ae7565b6110f6611b1a565b6111008282611fba565b60115461111d906001600160a01b0316611118611735565b612029565b6111276001600455565b5050565b611133611b1a565b61113b611469565b611158576040516345a5a96f60e11b815260040160405180910390fd5b600f546040516302f64cdf60e41b81523360048201819052915f916001600160a01b0390911690632f64cdf090602401602060405180830381865afa1580156111a3573d5f803e3d5ffd5b505050506040513d601f19601f820116820180604052508101906111c791906136d0565b90508061ffff165f036111f757604051626866c760e21b81526001600160a01b0383166004820152602401610b7b565b61121b826001600160a01b03165f9081526016602052604090205460ff1660011490565b1561124457604051632058b6db60e01b81526001600160a01b0383166004820152602401610b7b565b600f54604051630de7056b60e01b815261ffff831660048201525f9182916001600160a01b0390911690630de7056b906024016040805180830381865afa158015611291573d5f803e3d5ffd5b505050506040513d601f19601f820116820180604052508101906112b591906136eb565b91509150805f036112e457604051630f9dcbf560e21b81526001600160a01b0385166004820152602401610b7b565b6108e98484848461220d565b5f805460015461086e919061367b565b611308611b1a565b611310611469565b61132d576040516345a5a96f60e11b815260040160405180910390fd5b335f8181526015602052604081205461ffff169081900361143057600f546040516302f64cdf60e41b81526001600160a01b0384811660048301525f921690632f64cdf090602401602060405180830381865afa158015611390573d5f803e3d5ffd5b505050506040513d601f19601f820116820180604052508101906113b491906136d0565b90508061ffff165f036113e457604051626866c760e21b81526001600160a01b0384166004820152602401610b7b565b6014546113f69061ffff16600161370d565b6001600160a01b0384165f908152601560205260409020805461ffff831661ffff1991821681179092556014805490911690911790559150505b61143e61051460018361372f565b1561144a575050610989565b61145d61145860018361372f565b6122c3565b50506108f76001600455565b5f60076110e0611d87565b5f611480600254151590565b61149d576040516321c4e35760e21b815260040160405180910390fd5b600f5f9054906101000a90046001600160a01b03166001600160a01b0316635c94cb0c6040518163ffffffff1660e01b8152600401602060405180830381865afa15801561084a573d5f803e3d5ffd5b5f805f6114f8611469565b611515576040516345a5a96f60e11b815260040160405180910390fd5b61151d611b1a565b600f5460405163b189087960e01b815267ffffffffffffffff8716600482015285151560248201526001600160a01b039091169063b1890879906044016060604051808303815f875af1158015611576573d5f803e3d5ffd5b505050506040513d601f19601f8201168201806040525081019061159a919061374a565b6040805167ffffffffffffffff8a8116825260ff861660208301528481168284015283166060820152905193965091945092507f443e8452f1c9d1c508dd3e09780601c68bb958bf63e7dfc2b9997c0424a31aab919081900360800190a16116026001600455565b9250925092565b5f611612611469565b61162f576040516345a5a96f60e11b815260040160405180910390fd5b611637611ac0565b61086e33612367565b611648611ae7565b6108f75f612387565b611659611b1a565b611661611469565b61167e576040516345a5a96f60e11b815260040160405180910390fd5b61169d8161ffff165f9081526017602052604090205460ff1660011490565b156116c15760405163134b505b60e21b815261ffff82166004820152602401610b7b565b610c5b816122c3565b600f546040805163c15bd28f60e01b815290515f926001600160a01b03169163c15bd28f9160048083019260209291908290030181865afa158015611711573d5f803e3d5ffd5b505050506040513d601f19601f8201168201806040525081019061086e91906136d0565b600f546040805163630b7a0960e11b815290515f926001600160a01b03169163c616f4129160048083019260209291908290030181865afa1580156109da573d5f803e3d5ffd5b611784611b1a565b61178c611e23565b611794611ac0565b610989336123f7565b7f93ab6e17f2c461cce6ea5d4ec117e51dda77a64affc2b2c05f8cd440def0e700546001600160a01b031633146117d2575f80fd5b5f838152601a60205260409020546117f4906001600160a01b03168383612423565b505050565b7f93ab6e17f2c461cce6ea5d4ec117e51dda77a64affc2b2c05f8cd440def0e700546001600160a01b0316331461182e575f80fd5b60135550565b600f546040805163147b524560e11b815290515f926001600160a01b0316916328f6a48a9160048083019260209291908290030181865afa158015611711573d5f803e3d5ffd5b611883611e23565b61188b611b1a565b610c5b338261274c565b5f600360025414801561086e57505060035460ff1690565b6002545f908015806118bf5750600981145b806118ca5750600f81145b156118d6575f91505090565b5f6118df611d87565b905060038114806118f05750600781145b15611909576118fd612760565b611909575f9250505090565b60019250505090565b7f93ab6e17f2c461cce6ea5d4ec117e51dda77a64affc2b2c05f8cd440def0e700546001600160a01b03163314611947575f80fd5b5f848152601b60205260409020546119629061ffff166127a2565b61197561196e8461283c565b8383612423565b50505050565b335f9081526015602052604081205461ffff1680820361199c575f91505090565b6119aa61051460018361372f565b91505090565b6119b8611e23565b6119c0611b1a565b336119cb818361274c565b6119d881878787876128aa565b506110876001600455565b6010546040805163175068fb60e11b815290515f926001600160a01b031691632ea0d1f69160048083019260209291908290030181865afa158015610a45573d5f803e3d5ffd5b611a32611ae7565b6001600160a01b038116611a5b57604051631e4fbdf760e01b81525f6004820152602401610b7b565b610c6581612387565b611a6c611b1a565b611a74611e23565b611a8133858585856128aa565b6119756001600455565b5f611a94611469565b611ab1576040516345a5a96f60e11b815260040160405180910390fd5b611aba826128d8565b92915050565b611ac933611dab565b6108f757604051626866c760e21b8152336004820152602401610b7b565b6003546001600160a01b036101009091041633146108f75760405163118cdaa760e01b8152336004820152602401610b7b565b600260045403611b3d57604051633ee5aeb560e01b815260040160405180910390fd5b6002600455565b611b4c611895565b611b6957604051632db668c360e01b815260040160405180910390fd5b6007600255565b611b786118ad565b611b9557604051633437b5dd60e11b815260040160405180910390fd5b600160025403611ba6576009600255565b600f600255565b805f03611bb8575050565b6012546040516370a0823160e01b81526001600160a01b0384811660048301525f9216906370a0823190602401602060405180830381865afa158015611c00573d5f803e3d5ffd5b505050506040513d601f19601f82011682018060405250810190611c249190613635565b60125460405163a9059cbb60e01b81526001600160a01b0386811660048301526024820186905292935091169063a9059cbb906044016020604051808303815f875af1158015611c76573d5f803e3d5ffd5b505050506040513d601f19601f82011682018060405250810190611c9a919061361a565b506012546040516370a0823160e01b81526001600160a01b0385811660048301525f9216906370a0823190602401602060405180830381865afa158015611ce3573d5f803e3d5ffd5b505050506040513d601f19601f82011682018060405250810190611d079190613635565b905082611d14838361367b565b146119755760405162461bcd60e51b815260206004820152602e60248201527f50616e69633a2862616c616e63654166746572202d2062616c616e636542656660448201527f6f72652920213d20616d6f756e740000000000000000000000000000000000006064820152608401610b7b565b6002545f906002198101611da6576001544210611da657600417919050565b919050565b600f546040516302f64cdf60e41b81526001600160a01b0383811660048301525f921690632f64cdf090602401602060405180830381865afa158015611df3573d5f803e3d5ffd5b505050506040513d601f19601f82011682018060405250810190611e1791906136d0565b61ffff16151592915050565b6003611e2d611d87565b146108f757604051631bb5f5b360e31b815260040160405180910390fd5b6111278283836128f8565b5f611e61838361290c565b9392505050565b7fed8d60e34876f751cc8b014c560745351147d9de11b9347c854e881b128ea600805460405163155f840160e21b81525f92916001600160a01b03169063557e100490611eb9908a906004016137d3565b5f604051808303815f87803b158015611ed0575f80fd5b505af1158015611ee2573d5f803e3d5ffd5b505050505f611f0e7f93ab6e17f2c461cce6ea5d4ec117e51dda77a64affc2b2c05f8cd440def0e70090565b8054604051634c0d927760e01b81529192506001600160a01b031690634c0d927790611f46908b908b908b908b908b906004016137e5565b6020604051808303815f875af1158015611f62573d5f803e3d5ffd5b505050506040513d601f19601f82011682018060405250810190611f869190613635565b98975050505050505050565b60025415611fb35760405163aed5959560e01b815260040160405180910390fd5b6001600255565b600254600114611fdd576040516310d50e4f60e21b815260040160405180910390fd5b815f03611ffd57604051637616640160e01b815260040160405180910390fd5b6003600255425f8190556120129083906136a2565b6001556003805460ff191691151591909117905550565b805f03612034575050565b6012546040516370a0823160e01b81523060048201526001600160a01b03909116905f9082906370a08231906024015b602060405180830381865afa15801561207f573d5f803e3d5ffd5b505050506040513d601f19601f820116820180604052508101906120a39190613635565b6040516323b872dd60e01b81526001600160a01b038681166004830152306024830152604482018690529192505f918416906323b872dd906064016020604051808303815f875af11580156120fa573d5f803e3d5ffd5b505050506040513d601f19601f8201168201806040525081019061211e919061361a565b9050806121585760405163603bb82760e01b81526001600160a01b0380851660048301528616602482015260448101859052606401610b7b565b6040516370a0823160e01b81523060048201525f906001600160a01b038516906370a0823190602401602060405180830381865afa15801561219c573d5f803e3d5ffd5b505050506040513d601f19601f820116820180604052508101906121c09190613635565b9050846121cd848361367b565b146122055760405163603bb82760e01b81526001600160a01b0380861660048301528716602482015260448101869052606401610b7b565b505050505050565b6040805160028082526060820183525f9260208301908036833701905050905082815f815181106122405761224061368e565b6020908102919091010152818160018151811061225f5761225f61368e565b60209081029190910101525f61228382639b35700760e01b83610df64260646136a2565b5f908152601a60205260409020805473ffffffffffffffffffffffffffffffffffffffff19166001600160a01b0397909716969096179095555050505050565b600f54604051634ed1b02560e11b815261ffff831660048201525f91829182916001600160a01b031690639da3604a90602401606060405180830381865afa158015612311573d5f803e3d5ffd5b505050506040513d601f19601f82011682018060405250810190612335919061383f565b925092509250805f0361235b57604051633539fdd560e01b815260040160405180910390fd5b611975848484846129ab565b5f61237160135490565b5f0361237e57505f919050565b611aba82612a6b565b600380546001600160a01b038381166101008181027fffffffffffffffffffffff0000000000000000000000000000000000000000ff85161790945560405193909204169182907f8be0079c531659141344cd1fd0a4f28419497f9722a3daafe3b4186f6b6457e0905f90a35050565b6001600160a01b0381165f9081526019602052604090205461241a908290611e4b565b610c6581612b23565b6001600160a01b0383166124795760405162461bcd60e51b815260206004820152601260248201527f50616e69633a20626964646572203d3d203000000000000000000000000000006044820152606401610b7b565b61248283612bab565b5f61248c60135490565b90505f81116124dd5760405162461bcd60e51b815260206004820152601860248201527f50616e69633a20756e69666f726d5072696365203d3d203000000000000000006044820152606401610b7b565b825f036125585781156125585760405162461bcd60e51b815260206004820152603860248201527f50616e69633a20636c65617256616c6964617465645072696365203d3d20302060448201527f262620636c656172576f6e5175616e7469747920213d203000000000000000006064820152608401610b7b565b8115612669575f612569838361386a565b90505f81116125ba5760405162461bcd60e51b815260206004820152601b60248201527f50616e69633a20626964646572447565416d6f756e74203d3d203000000000006044820152606401610b7b565b6001600160a01b0385165f908152601960205260409020548111156126475760405162461bcd60e51b815260206004820152602a60248201527f50616e69633a205f62616c616e6365735b6269646465725d203c20626964646560448201527f72447565416d6f756e74000000000000000000000000000000000000000000006064820152608401610b7b565b6126638561265d6011546001600160a01b031690565b836128f8565b506126af565b825f036126af577f000000000000000000000000000000000000000000000000000000000000000080156126ad576126ad8561265d6011546001600160a01b031690565b505b6001600160a01b0384165f9081526019602052604090205480156126d7576126d78582611e4b565b6001600160a01b0385165f908152601960205260409020541561273c5760405162461bcd60e51b815260206004820152601c60248201527f50616e69633a205f62616c616e6365735b6269646465725d203e2030000000006044820152606401610b7b565b8215611087576110878584611bad565b6127568282612c35565b6111278282612c90565b5f612769611834565b60145462010000900461ffff9081169116148061086e5750612789611834565b601454640100000000900461ffff908116911614905090565b6127c18161ffff165f9081526017602052604090205460ff1660011490565b156127e55760405163134b505b60e21b815261ffff82166004820152602401610b7b565b61ffff8082165f908152601760205260409020805460ff1916600117905560148054640100000000900490911690600461281e83613881565b91906101000a81548161ffff021916908361ffff1602179055505050565b600f546040516321a6832960e21b815261ffff831660048201525f916001600160a01b03169063869a0ca490602401602060405180830381865afa158015612886573d5f803e3d5ffd5b505050506040513d601f19601f82011682018060405250810190611aba91906136b5565b6001600160a01b0385165f908152601960205260409020546128cb90612cc0565b6110878585858585612d2a565b5f6128e260135490565b5f036128ef57505f919050565b611aba82612eba565b6129028382612f36565b6117f48282612f5d565b5f807fed8d60e34876f751cc8b014c560745351147d9de11b9347c854e881b128ea6008054604051632fd514cd60e11b8152600481018790526001600160a01b038681166024830152929350911690635faa299a90604401602060405180830381865afa15801561297f573d5f803e3d5ffd5b505050506040513d601f19601f820116820180604052508101906129a3919061361a565b949350505050565b604080516003808252608082019092525f916020820160608036833701905050905083815f815181106129e0576129e061368e565b602090810291909101015282816001815181106129ff576129ff61368e565b60209081029190910101528181600281518110612a1e57612a1e61368e565b60209081029190910101525f612a4282630cfc771b60e41b83610df64260646136a2565b5f908152601b60205260409020805461ffff191661ffff97909716969096179095555050505050565b5f612a90826001600160a01b03165f9081526016602052604090205460ff1660011490565b15612a9c57505f919050565b600f5f9054906101000a90046001600160a01b03166001600160a01b0316636dc7a6276040518163ffffffff1660e01b8152600401602060405180830381865afa158015612aec573d5f803e3d5ffd5b505050506040513d601f19601f82011682018060405250810190612b10919061361a565b612b1b57505f919050565b506001919050565b6040805180820182525f80825260208083018281526001600160a01b038681168085526018909352928590209351845551600190930192909255600f549251631a6c4ac160e31b81526004810192909252919091169063d3625608906024015f604051808303815f87803b158015612b99575f80fd5b505af1158015611087573d5f803e3d5ffd5b612bcf816001600160a01b03165f9081526016602052604090205460ff1660011490565b15612bf857604051632058b6db60e01b81526001600160a01b0382166004820152602401610b7b565b6001600160a01b0381165f908152601660205260409020805460ff191660011790556014805461ffff620100009091041690600261281e83613881565b805f03612c40575050565b6040516370a0823160e01b81523060048201527f0000000000000000000000000000000000000000000000000000000000000000905f906001600160a01b038316906370a0823190602401612064565b6001600160a01b0382165f9081526019602052604081208054839290612cb79084906136a2565b90915550505050565b7f0000000000000000000000000000000000000000000000000000000000000000811015610c655760405163cf47918160e01b8152600481018290527f00000000000000000000000000000000000000000000000000000000000000006024820152604401610b7b565b5f6040518060400160405280612d758786868080601f0160208091040260200160405190810160405280939291908181526020018383808284375f9201919091525061312e92505050565b8152602001612db98686868080601f0160208091040260200160405190810160405280939291908181526020018383808284375f9201919091525061312e92505050565b9052600f5481519192506001600160a01b031690612dd7908261313b565b612de582602001518261313b565b600f54825160208401516040516305ba01f160e21b81526001600160a01b038b81166004830152602482019390935260448101919091529116906316e807c4906064015f604051808303815f87803b158015612e3f575f80fd5b505af1158015612e51573d5f803e3d5ffd5b50505050612e62825f015188613145565b612e70826020015188613145565b8151612e7b9061314f565b612e88826020015161314f565b506001600160a01b039095165f9081526018602090815260409091208651815595015160019095019490945550505050565b5f612eda8261ffff165f9081526017602052604090205460ff1660011490565b15612ee657505f919050565b600f5f9054906101000a90046001600160a01b03166001600160a01b03166302dda9cf6040518163ffffffff1660e01b8152600401602060405180830381865afa158015612aec573d5f803e3d5ffd5b6001600160a01b0382165f9081526019602052604081208054839290612cb790849061367b565b6040516370a0823160e01b81523060048201525f907f00000000000000000000000000000000000000000000000000000000000000006001600160a01b0316906370a0823190602401602060405180830381865afa158015612fc1573d5f803e3d5ffd5b505050506040513d601f19601f82011682018060405250810190612fe59190613635565b60405163a9059cbb60e01b81526001600160a01b038581166004830152602482018590529192507f00000000000000000000000000000000000000000000000000000000000000009091169063a9059cbb906044016020604051808303815f875af1158015613056573d5f803e3d5ffd5b505050506040513d601f19601f8201168201806040525081019061307a919061361a565b506040516370a0823160e01b81523060048201525f907f00000000000000000000000000000000000000000000000000000000000000006001600160a01b0316906370a0823190602401602060405180830381865afa1580156130df573d5f803e3d5ffd5b505050506040513d601f19601f820116820180604052508101906131039190613635565b905082613110828461367b565b1461197557604051631d42c86760e21b815260040160405180910390fd5b5f611e6183836008613159565b611127828261327d565b6111278282613304565b610c658130613304565b7fed8d60e34876f751cc8b014c560745351147d9de11b9347c854e881b128ea601546040516302e817ff60e41b81525f917fed8d60e34876f751cc8b014c560745351147d9de11b9347c854e881b128ea600916001600160a01b0390911690632e817ff0906131d69088903390899060f88a901b906004016138a1565b6020604051808303815f875af11580156131f2573d5f803e3d5ffd5b505050506040513d601f19601f820116820180604052508101906132169190613635565b81546040516346ce4e4960e11b8152600481018390523360248201529193506001600160a01b031690638d9c9c92906044015f604051808303815f87803b15801561325f575f80fd5b505af1158015613271573d5f803e3d5ffd5b50505050509392505050565b7fed8d60e34876f751cc8b014c560745351147d9de11b9347c854e881b128ea60080546040516346ce4e4960e11b8152600481018590526001600160a01b03848116602483015290911690638d9c9c92906044015b5f604051808303815f87803b1580156132e9575f80fd5b505af11580156132fb573d5f803e3d5ffd5b50505050505050565b7fed8d60e34876f751cc8b014c560745351147d9de11b9347c854e881b128ea6008054604051631974142760e21b8152600481018590526001600160a01b038481166024830152909116906365d0509c906044016132d2565b6001600160a01b0381168114610c65575f80fd5b5f60208284031215613381575f80fd5b8135611e618161335d565b5f6020828403121561339c575f80fd5b5035919050565b61ffff81168114610c65575f80fd5b5f805f805f60a086880312156133c6575f80fd5b85356133d18161335d565b945060208601356133e18161335d565b935060408601356133f18161335d565b9250606086013591506080860135613408816133a3565b809150509295509295909350565b5f60208284031215613426575f80fd5b8135611e61816133a3565b8015158114610c65575f80fd5b5f806040838503121561344f575f80fd5b82359150602083013561346181613431565b809150509250929050565b67ffffffffffffffff81168114610c65575f80fd5b5f8060408385031215613492575f80fd5b823561349d8161346c565b9150602083013561346181613431565b5f805f606084860312156134bf575f80fd5b505081359360208301359350604090920135919050565b5f80604083850312156134e7575f80fd5b50508035926020909101359150565b5f805f8060808587031215613509575f80fd5b84359350602085013561351b816133a3565b93969395505050506040820135916060013590565b5f8083601f840112613540575f80fd5b50813567ffffffffffffffff811115613557575f80fd5b60208301915083602082850101111561356e575f80fd5b9250929050565b5f805f805f60808688031215613589575f80fd5b8535945060208601359350604086013567ffffffffffffffff8111156135ad575f80fd5b6135b988828901613530565b96999598509660600135949350505050565b5f805f80606085870312156135de575f80fd5b8435935060208501359250604085013567ffffffffffffffff811115613602575f80fd5b61360e87828801613530565b95989497509550505050565b5f6020828403121561362a575f80fd5b8151611e6181613431565b5f60208284031215613645575f80fd5b5051919050565b5f6020828403121561365c575f80fd5b8151611e618161346c565b634e487b7160e01b5f52601160045260245ffd5b81810381811115611aba57611aba613667565b634e487b7160e01b5f52603260045260245ffd5b80820180821115611aba57611aba613667565b5f602082840312156136c5575f80fd5b8151611e618161335d565b5f602082840312156136e0575f80fd5b8151611e61816133a3565b5f80604083850312156136fc575f80fd5b505080516020909101519092909150565b61ffff81811683821601908082111561372857613728613667565b5092915050565b61ffff82811682821603908082111561372857613728613667565b5f805f6060848603121561375c575f80fd5b835160ff8116811461376c575f80fd5b602085015190935061377d8161346c565b604085015190925061378e8161346c565b809150509250925092565b5f815180845260208085019450602084015f5b838110156137c8578151875295820195908201906001016137ac565b509495945050505050565b602081525f611e616020830184613799565b60a081525f6137f760a0830188613799565b7fffffffff0000000000000000000000000000000000000000000000000000000096909616602083015250604081019390935260608301919091521515608090910152919050565b5f805f60608486031215613851575f80fd5b8351925060208401519150604084015190509250925092565b8082028115828204841417611aba57611aba613667565b5f61ffff80831681810361389757613897613667565b6001019392505050565b8481525f60206001600160a01b03861660208401526080604084015284518060808501525f5b818110156138e35786810183015185820160a0015282016138c7565b505f60a0828601015260a0601f19601f8301168501019250505060ff60f81b831660608301529594505050505056fea164736f6c6343000818000aa164736f6c6343000818000a",
  "devdoc": {
    "errors": {
      "Create2EmptyBytecode()": [
        {
          "details": "There's no code to deploy."
        }
      ],
      "FailedDeployment()": [
        {
          "details": "The deployment failed."
        }
      ],
      "InsufficientBalance(uint256,uint256)": [
        {
          "details": "The ETH balance of the account is not enough to perform the operation."
        }
      ],
      "OwnableInvalidOwner(address)": [
        {
          "details": "The owner is not a valid owner account. (eg. `address(0)`)"
        }
      ],
      "OwnableUnauthorizedAccount(address)": [
        {
          "details": "The caller account is not authorized to perform an operation."
        }
      ]
    },
    "kind": "dev",
    "methods": {
      "acceptOwnership()": {
        "details": "The new owner accepts the ownership transfer."
      },
      "owner()": {
        "details": "Returns the address of the current owner."
      },
      "pendingOwner()": {
        "details": "Returns the address of the pending owner."
      },
      "renounceOwnership()": {
        "details": "Leaves the contract without owner. It will not be possible to call `onlyOwner` functions. Can only be called by the current owner. NOTE: Renouncing ownership will leave the contract without an owner, thereby disabling any functionality that is only available to the owner."
      },
      "transferOwnership(address)": {
        "details": "Starts the ownership transfer of the contract to a new account. Replaces the pending transfer if there is one. Can only be called by the current owner. Setting `newOwner` to the zero address is allowed; this can be used to cancel an initiated ownership transfer."
      }
    },
    "version": 1
  },
  "userdoc": {
    "kind": "user",
    "methods": {},
    "version": 1
  },
  "storageLayout": {
    "storage": [
      {
        "astId": 8,
        "contract": "contracts/auctions/factories/FHEAuctionERC20Factory.sol:FHEAuctionERC20Factory",
        "label": "_owner",
        "offset": 0,
        "slot": "0",
        "type": "t_address"
      },
      {
        "astId": 156,
        "contract": "contracts/auctions/factories/FHEAuctionERC20Factory.sol:FHEAuctionERC20Factory",
        "label": "_pendingOwner",
        "offset": 0,
        "slot": "1",
        "type": "t_address"
      },
      {
        "astId": 4799,
        "contract": "contracts/auctions/factories/FHEAuctionERC20Factory.sol:FHEAuctionERC20Factory",
        "label": "_engineFactories",
        "offset": 0,
        "slot": "2",
        "type": "t_mapping(t_uint8,t_contract(FHEAuctionEngineFactory)9157)"
      },
      {
        "astId": 4803,
        "contract": "contracts/auctions/factories/FHEAuctionERC20Factory.sol:FHEAuctionERC20Factory",
        "label": "_auctionDeployed",
        "offset": 0,
        "slot": "3",
        "type": "t_mapping(t_bytes32,t_address)"
      }
    ],
    "types": {
      "t_address": {
        "encoding": "inplace",
        "label": "address",
        "numberOfBytes": "20"
      },
      "t_bytes32": {
        "encoding": "inplace",
        "label": "bytes32",
        "numberOfBytes": "32"
      },
      "t_contract(FHEAuctionEngineFactory)9157": {
        "encoding": "inplace",
        "label": "contract FHEAuctionEngineFactory",
        "numberOfBytes": "20"
      },
      "t_mapping(t_bytes32,t_address)": {
        "encoding": "mapping",
        "key": "t_bytes32",
        "label": "mapping(bytes32 => address)",
        "numberOfBytes": "32",
        "value": "t_address"
      },
      "t_mapping(t_uint8,t_contract(FHEAuctionEngineFactory)9157)": {
        "encoding": "mapping",
        "key": "t_uint8",
        "label": "mapping(uint8 => contract FHEAuctionEngineFactory)",
        "numberOfBytes": "32",
        "value": "t_contract(FHEAuctionEngineFactory)9157"
      },
      "t_uint8": {
        "encoding": "inplace",
        "label": "uint8",
        "numberOfBytes": "1"
      }
    }
  }
}