{
  "address": "0x8AcE8120A896Ee8DaE27159ea10065a85fbbe764",
  "abi": [
    {
      "inputs": [],
      "stateMutability": "nonpayable",
      "type": "constructor"
    },
    {
      "inputs": [
        {
          "internalType": "address",
          "name": "owner",
          "type": "address"
        }
      ],
      "name": "OwnableInvalidOwner",
      "type": "error"
    },
    {
      "inputs": [
        {
          "internalType": "address",
          "name": "account",
          "type": "address"
        }
      ],
      "name": "OwnableUnauthorizedAccount",
      "type": "error"
    },
    {
      "anonymous": false,
      "inputs": [
        {
          "indexed": true,
          "internalType": "address",
          "name": "previousOwner",
          "type": "address"
        },
        {
          "indexed": true,
          "internalType": "address",
          "name": "newOwner",
          "type": "address"
        }
      ],
      "name": "OwnershipTransferStarted",
      "type": "event"
    },
    {
      "anonymous": false,
      "inputs": [
        {
          "indexed": true,
          "internalType": "address",
          "name": "previousOwner",
          "type": "address"
        },
        {
          "indexed": true,
          "internalType": "address",
          "name": "newOwner",
          "type": "address"
        }
      ],
      "name": "OwnershipTransferred",
      "type": "event"
    },
    {
      "inputs": [],
      "name": "acceptOwnership",
      "outputs": [],
      "stateMutability": "nonpayable",
      "type": "function"
    },
    {
      "inputs": [
        {
          "internalType": "address",
          "name": "initialOwner",
          "type": "address"
        }
      ],
      "name": "createNewIterator",
      "outputs": [
        {
          "internalType": "address",
          "name": "",
          "type": "address"
        }
      ],
      "stateMutability": "nonpayable",
      "type": "function"
    },
    {
      "inputs": [],
      "name": "owner",
      "outputs": [
        {
          "internalType": "address",
          "name": "",
          "type": "address"
        }
      ],
      "stateMutability": "view",
      "type": "function"
    },
    {
      "inputs": [],
      "name": "pendingOwner",
      "outputs": [
        {
          "internalType": "address",
          "name": "",
          "type": "address"
        }
      ],
      "stateMutability": "view",
      "type": "function"
    },
    {
      "inputs": [],
      "name": "renounceOwnership",
      "outputs": [],
      "stateMutability": "nonpayable",
      "type": "function"
    },
    {
      "inputs": [
        {
          "internalType": "address",
          "name": "newOwner",
          "type": "address"
        }
      ],
      "name": "transferOwnership",
      "outputs": [],
      "stateMutability": "nonpayable",
      "type": "function"
    }
  ],
  "transactionHash": "0x5b1324be53c9b67d6019b17601f6269c0d347ca53923f5a4d1618ad31ba5e0b2",
  "args": [],
  "numDeployments": 2,
  "solcInputHash": "b4131e9528337a45f242293135657fca",
  "bytecode": "0x608060405234801561000f575f80fd5b50338061003557604051631e4fbdf760e01b81525f600482015260240160405180910390fd5b61003e81610044565b506100af565b600180546001600160a01b031916905561005d81610060565b50565b5f80546001600160a01b038381166001600160a01b0319831681178455604051919092169283917f8be0079c531659141344cd1fd0a4f28419497f9722a3daafe3b4186f6b6457e09190a35050565b6118dc806100bc5f395ff3fe608060405234801561000f575f80fd5b506004361061006f575f3560e01c80638da5cb5b1161004d5780638da5cb5b146100b4578063e30c3978146100c4578063f2fde38b146100d5575f80fd5b8063715018a61461007357806379ba50971461007d5780637ef77a8414610085575b5f80fd5b61007b6100e8565b005b61007b6100fb565b6100986100933660046102b7565b610144565b6040516001600160a01b03909116815260200160405180910390f35b5f546001600160a01b0316610098565b6001546001600160a01b0316610098565b61007b6100e33660046102b7565b610184565b6100f0610201565b6100f95f61022d565b565b60015433906001600160a01b031681146101385760405163118cdaa760e01b81526001600160a01b03821660048201526024015b60405180910390fd5b6101418161022d565b50565b5f8082604051610153906102aa565b6001600160a01b039091168152602001604051809103905ff08015801561017c573d5f803e3d5ffd5b509392505050565b61018c610201565b600180546001600160a01b03831673ffffffffffffffffffffffffffffffffffffffff1990911681179091556101c95f546001600160a01b031690565b6001600160a01b03167f38d16b8cac22d99fc7c124b9cd0de2d3fa1faef420bfe791d8c362d765e2270060405160405180910390a350565b5f546001600160a01b031633146100f95760405163118cdaa760e01b815233600482015260240161012f565b6001805473ffffffffffffffffffffffffffffffffffffffff19169055610141815f80546001600160a01b0383811673ffffffffffffffffffffffffffffffffffffffff19831681178455604051919092169283917f8be0079c531659141344cd1fd0a4f28419497f9722a3daafe3b4186f6b6457e09190a35050565b6115eb806102e583390190565b5f602082840312156102c7575f80fd5b81356001600160a01b03811681146102dd575f80fd5b939250505056fe608060405234801561000f575f80fd5b50604051620015eb380380620015eb833981016040819052610030916101c1565b80806001600160a01b03811661005f57604051631e4fbdf760e01b81525f600482015260240160405180910390fd5b61006881610172565b505f5b60058160ff16101561016a57604080516060810182525f80825260208201818152928201818152600280546001808201835591845293517f405787fa12a823e0f2b7631cc41b3ba8828b3321ca811111fa75cd3aa3bb5ace90940180549551925163ffffffff95861664ffffffffff199097169690961764010000000060ff909416939093029290921763ffffffff60281b19166501000000000094909516939093029390931790925580548082018255918190527fb10e2d527612073b26eecdfd717e6a320cf44b4afac2b0732d9fcbe2b7fa0cf66004830401805460039093166008026101000a6001600160401b0302199092169091550161006b565b5050506101ee565b5f80546001600160a01b038381166001600160a01b0319831681178455604051919092169283917f8be0079c531659141344cd1fd0a4f28419497f9722a3daafe3b4186f6b6457e09190a35050565b5f602082840312156101d1575f80fd5b81516001600160a01b03811681146101e7575f80fd5b9392505050565b6113ef80620001fc5f395ff3fe608060405234801561000f575f80fd5b50600436106100f0575f3560e01c8063715018a611610093578063bef4876b11610063578063bef4876b146101fb578063c4ef91f214610214578063e25fe17514610227578063f2fde38b1461023c575f80fd5b8063715018a61461018757806378b4321f146101915780638da5cb5b146101a4578063b1890879146101be575f80fd5b80635b96d860116100ce5780635b96d8601461015957806362b867541461016c578063698c0649146101745780636bc2982d1461016c575f80fd5b806306debb0e146100f4578063160624071461011d5780632ea0d1f61461013e575b5f80fd5b600354610100900463ffffffff165b60405163ffffffff90911681526020015b60405180910390f35b61012561024f565b60405167ffffffffffffffff9091168152602001610114565b60035465010000000000900467ffffffffffffffff16610125565b6101036101673660046110d1565b610291565b6101256102bf565b6101036101823660046110d1565b6102cf565b61018f61033b565b005b61012561019f3660046110d1565b61034e565b5f546040516001600160a01b039091168152602001610114565b6101d16101cc366004611107565b6103ba565b6040805160ff909416845267ffffffffffffffff9283166020850152911690820152606001610114565b60035460ff166004146040519015158152602001610114565b61018f610222366004611157565b6103ea565b60035460405160ff9091168152602001610114565b61018f61024a3660046111d7565b6106e3565b5f6001600381548110610264576102646111fd565b905f5260205f2090600491828204019190066008029054906101000a900467ffffffffffffffff16905090565b5f60028260ff16815481106102a8576102a86111fd565b5f9182526020909120015463ffffffff1692915050565b5f6102ca6002610725565b905090565b6003545f9060ff90811690831681036102f7575050600354610100900463ffffffff16919050565b8260ff168160ff1611156103335760028360ff168154811061031b5761031b6111fd565b5f9182526020909120015463ffffffff169392505050565b505f92915050565b61034361076b565b61034c5f610797565b565b5f60028260ff1681548110610365576103656111fd565b5f918252602090912001546002805460ff6401000000009093048316928516908110610393576103936111fd565b5f918252602090912001546103ae919063ffffffff16611225565b63ffffffff1692915050565b5f805f6103c561076b565b6103dc85856103d55760036107fe565b60026107fe565b919790965090945092505050565b6103f261076b565b60408051600480825260a082019092525f91816020015b604080516060810182525f80825260208083018290529282015282525f199092019101816104095790505090508661ffff16815f8151811061044d5761044d6111fd565b60200260200101515f019063ffffffff16908163ffffffff16815250506001815f8151811061047e5761047e6111fd565b60200260200101516020019060ff16908160ff168152505085815f815181106104a9576104a96111fd565b602090810291909101015163ffffffff90911660409091015261ffff8716156105055760038761ffff16106104fe5760026104e560018961124d565b6104ef908961126f565b6104f991906112a1565b610507565b6001610507565b5f5b61ffff168160018151811061051e5761051e6111fd565b60200260200101515f019063ffffffff16908163ffffffff1681525050600281600181518110610550576105506111fd565b60200260200101516020019060ff16908160ff1681525050848160018151811061057c5761057c6111fd565b60200260200101516040019063ffffffff16908163ffffffff16815250508661ffff16816002815181106105b2576105b26111fd565b60200260200101515f019063ffffffff16908163ffffffff16815250506001816002815181106105e4576105e46111fd565b60200260200101516020019060ff16908160ff16815250508381600281518110610610576106106111fd565b60200260200101516040019063ffffffff16908163ffffffff1681525050816106d15761063d878061126f565b61ffff1681600381518110610654576106546111fd565b60200260200101515f019063ffffffff16908163ffffffff1681525050600181600381518110610686576106866111fd565b60200260200101516020019060ff16908160ff168152505082816003815181106106b2576106b26111fd565b60200260200101516040019063ffffffff16908163ffffffff16815250505b6106da81610e26565b50505050505050565b6106eb61076b565b6001600160a01b03811661071957604051631e4fbdf760e01b81525f60048201526024015b60405180910390fd5b61072281610797565b50565b5f60018260ff168154811061073c5761073c6111fd565b905f5260205f2090600491828204019190066008029054906101000a900467ffffffffffffffff169050919050565b5f546001600160a01b0316331461034c5760405163118cdaa760e01b8152336004820152602401610710565b5f80546001600160a01b038381167fffffffffffffffffffffffff0000000000000000000000000000000000000000831681178455604051919092169283917f8be0079c531659141344cd1fd0a4f28419497f9722a3daafe3b4186f6b6457e09190a35050565b6003545f9067ffffffffffffffff6501000000000082041690819060ff166004811461082a575f61082d565b60015b93508460ff168160ff1611156108435750610e1f565b600354629896809063ffffffff610100909104165f8061086a5f546001600160a01b031690565b90505b60048560ff1610801561088657508860ff168560ff1611155b801561089757505f8463ffffffff16115b15610d62575f60028660ff16815481106108b3576108b36111fd565b5f918252602080832060408051606081018252939091015463ffffffff808216808652640100000000830460ff16948601949094526501000000000090910416908301529092506109059086906112c1565b90508063ffffffff165f0361092b575f94506109226001886112de565b9650505061086d565b8b67ffffffffffffffff165f03610943575050610d62565b602082015160ff165f67ffffffffffffffff8e1682111561096f575063ffffffff81169c5060016109a9565b6109798284611225565b63ffffffff168e67ffffffffffffffff16106109965750816109a9565b6109a663ffffffff83168f6112fd565b90505b8763ffffffff168460400151826109c09190611225565b63ffffffff1611156109f65760408401516109db9089611317565b90508063ffffffff165f036109f6575f975050505050610d62565b6040840151610a059082611225565b610a0f90896112c1565b97505f8960ff165f03610aa657845160405163e8f5858160e01b815263ffffffff808b166004830152808516602483015290911660448201526001600160a01b0387169063e8f58581906064015b60408051808303815f875af1158015610a78573d5f803e3d5ffd5b505050506040513d601f19601f82011682018060405250810190610a9c919061132d565b909d509050610bd6565b8960ff16600103610af657845160405163285bb39360e01b815263ffffffff808b166004830152808516602483015290911660448201526001600160a01b0387169063285bb39390606401610a5d565b8960ff16600203610b465784516040516306e62f6960e51b815263ffffffff808b166004830152808516602483015290911660448201526001600160a01b0387169063dcc5ed2090606401610a5d565b8960ff16600303610bd6578451604051637562fa0b60e01b815263ffffffff808b166004830152808516602483015290911660448201526001600160a01b03871690637562fa0b9060640160408051808303815f875af1158015610bac573d5f803e3d5ffd5b505050506040513d601f19601f82011682018060405250810190610bd0919061132d565b909d5090505b610be08382611225565b610bf09063ffffffff1688611365565b9650610bfc8382611225565b63ffffffff168f610c0d9190611386565b9e50610c1981896113a7565b97505f1960ff8e1601610c9457845163ffffffff898116911614610c7f5760405162461bcd60e51b815260206004820152601860248201527f50616e69633a207020213d20746865537465702e73697a6500000000000000006044820152606401610710565b5f9750610c8d60018b6112de565b9950610d58565b845f015163ffffffff168863ffffffff1610610cf25760405162461bcd60e51b815260206004820152601860248201527f50616e69633a2070203e3d20746865537465702e73697a6500000000000000006044820152606401610710565b60ff8d1615610d585760ff8d16600214610d4e5760405162461bcd60e51b815260206004820152601f60248201527f50616e69633a20636f646520213d20455f4e4f545f454e4f5547485f474153006044820152606401610710565b5050505050610d62565b505050505061086d565b5f8a67ffffffffffffffff16118015610d7f575063ffffffff8416155b15610d8957600297505b67ffffffffffffffff821615610dd057610da38288611365565b600380546cffffffffffffffff000000000019166501000000000067ffffffffffffffff84160217905595505b6003805464ffffffffff191661010063ffffffff86160260ff19161760ff87811691909117909155600290891614610e19578460ff16600414610e13575f610e16565b60015b97505b50505050505b9250925092565b600481511115610e34575f80fd5b5f805b82518160ff16101561104f575f838260ff1681518110610e5957610e596111fd565b60200260200101515f015163ffffffff16118015610e995750828160ff1681518110610e8757610e876111fd565b60200260200101516020015160ff165f145b15610eb75760405163efa7e62960e01b815260040160405180910390fd5b828160ff1681518110610ecc57610ecc6111fd565b60200260200101516020015160ff16838260ff1681518110610ef057610ef06111fd565b60200260200101515f0151610f059190611225565b610f159063ffffffff1683611365565b91505f60028260ff1681548110610f2e57610f2e6111fd565b905f5260205f20019050838260ff1681518110610f4d57610f4d6111fd565b602090810291909101015151815463ffffffff191663ffffffff9091161781558351849060ff8416908110610f8457610f846111fd565b6020908102919091018101510151815464ff00000000191664010000000060ff92831602178255845185918416908110610fc057610fc06111fd565b602002602001015160400151815f0160056101000a81548163ffffffff021916908363ffffffff1602179055508260018360ff1681548110611004576110046111fd565b905f5260205f2090600491828204019190066008026101000a81548167ffffffffffffffff021916908367ffffffffffffffff1602179055505080611048906113c4565b9050610e37565b60048160ff1610156110be578160018260ff1681548110611072576110726111fd565b905f5260205f2090600491828204019190066008026101000a81548167ffffffffffffffff021916908367ffffffffffffffff16021790555080806110b6906113c4565b91505061104f565b505050565b60ff81168114610722575f80fd5b5f602082840312156110e1575f80fd5b81356110ec816110c3565b9392505050565b80358015158114611102575f80fd5b919050565b5f8060408385031215611118575f80fd5b823567ffffffffffffffff8116811461112f575f80fd5b915061113d602084016110f3565b90509250929050565b63ffffffff81168114610722575f80fd5b5f805f805f8060c0878903121561116c575f80fd5b863561ffff8116811461117d575f80fd5b9550602087013561118d81611146565b9450604087013561119d81611146565b935060608701356111ad81611146565b925060808701356111bd81611146565b91506111cb60a088016110f3565b90509295509295509295565b5f602082840312156111e7575f80fd5b81356001600160a01b03811681146110ec575f80fd5b634e487b7160e01b5f52603260045260245ffd5b634e487b7160e01b5f52601160045260245ffd5b63ffffffff81811683821602808216919082811461124557611245611211565b505092915050565b61ffff82811682821603908082111561126857611268611211565b5092915050565b61ffff81811683821602808216919082811461124557611245611211565b634e487b7160e01b5f52601260045260245ffd5b5f61ffff808416806112b5576112b561128d565b92169190910492915050565b63ffffffff82811682821603908082111561126857611268611211565b60ff81811683821601908111156112f7576112f7611211565b92915050565b5f67ffffffffffffffff808416806112b5576112b561128d565b5f63ffffffff808416806112b5576112b561128d565b5f806040838503121561133e575f80fd5b8251611349816110c3565b602084015190925061135a81611146565b809150509250929050565b67ffffffffffffffff81811683821601908082111561126857611268611211565b67ffffffffffffffff82811682821603908082111561126857611268611211565b63ffffffff81811683821601908082111561126857611268611211565b5f60ff821660ff81036113d9576113d9611211565b6001019291505056fea164736f6c6343000818000aa164736f6c6343000818000a",
  "devdoc": {
    "errors": {
      "OwnableInvalidOwner(address)": [
        {
          "details": "The owner is not a valid owner account. (eg. `address(0)`)"
        }
      ],
      "OwnableUnauthorizedAccount(address)": [
        {
          "details": "The caller account is not authorized to perform an operation."
        }
      ]
    },
    "kind": "dev",
    "methods": {
      "acceptOwnership()": {
        "details": "The new owner accepts the ownership transfer."
      },
      "owner()": {
        "details": "Returns the address of the current owner."
      },
      "pendingOwner()": {
        "details": "Returns the address of the pending owner."
      },
      "renounceOwnership()": {
        "details": "Leaves the contract without owner. It will not be possible to call `onlyOwner` functions. Can only be called by the current owner. NOTE: Renouncing ownership will leave the contract without an owner, thereby disabling any functionality that is only available to the owner."
      },
      "transferOwnership(address)": {
        "details": "Starts the ownership transfer of the contract to a new account. Replaces the pending transfer if there is one. Can only be called by the current owner. Setting `newOwner` to the zero address is allowed; this can be used to cancel an initiated ownership transfer."
      }
    },
    "version": 1
  },
  "userdoc": {
    "kind": "user",
    "methods": {},
    "version": 1
  },
  "storageLayout": {
    "storage": [
      {
        "astId": 8,
        "contract": "contracts/engines/factories/FHEAuctionEngineIteratorFactory.sol:FHEAuctionEngineIteratorFactory",
        "label": "_owner",
        "offset": 0,
        "slot": "0",
        "type": "t_address"
      },
      {
        "astId": 156,
        "contract": "contracts/engines/factories/FHEAuctionEngineIteratorFactory.sol:FHEAuctionEngineIteratorFactory",
        "label": "_pendingOwner",
        "offset": 0,
        "slot": "1",
        "type": "t_address"
      }
    ],
    "types": {
      "t_address": {
        "encoding": "inplace",
        "label": "address",
        "numberOfBytes": "20"
      }
    }
  }
}