{
  "address": "0x564F52dE1185D705d61fDC0A1F9095BbbF1F7655",
  "abi": [
    {
      "inputs": [
        {
          "components": [
            {
              "internalType": "contract FHEAuctionEngineFactory",
              "name": "enginePriceIdFactory",
              "type": "address"
            },
            {
              "internalType": "contract FHEAuctionEngineFactory",
              "name": "enginePriceQuantityIdFactory",
              "type": "address"
            },
            {
              "internalType": "contract FHEAuctionEngineFactory",
              "name": "enginePriceRandomFactory",
              "type": "address"
            },
            {
              "internalType": "contract FHEAuctionEngineFactory",
              "name": "engineProRataFactory",
              "type": "address"
            }
          ],
          "internalType": "struct FHEAuctionFactory.FHEAuctionFactoryDetails",
          "name": "details_",
          "type": "tuple"
        }
      ],
      "stateMutability": "nonpayable",
      "type": "constructor"
    },
    {
      "inputs": [],
      "name": "Create2EmptyBytecode",
      "type": "error"
    },
    {
      "inputs": [],
      "name": "FailedDeployment",
      "type": "error"
    },
    {
      "inputs": [
        {
          "internalType": "uint256",
          "name": "balance",
          "type": "uint256"
        },
        {
          "internalType": "uint256",
          "name": "needed",
          "type": "uint256"
        }
      ],
      "name": "InsufficientBalance",
      "type": "error"
    },
    {
      "inputs": [
        {
          "internalType": "address",
          "name": "owner",
          "type": "address"
        }
      ],
      "name": "OwnableInvalidOwner",
      "type": "error"
    },
    {
      "inputs": [
        {
          "internalType": "address",
          "name": "account",
          "type": "address"
        }
      ],
      "name": "OwnableUnauthorizedAccount",
      "type": "error"
    },
    {
      "anonymous": false,
      "inputs": [
        {
          "indexed": true,
          "internalType": "address",
          "name": "auction_",
          "type": "address"
        },
        {
          "indexed": true,
          "internalType": "bytes32",
          "name": "salt_",
          "type": "bytes32"
        },
        {
          "indexed": false,
          "internalType": "address",
          "name": "beneficiary_",
          "type": "address"
        },
        {
          "indexed": false,
          "internalType": "address",
          "name": "auctionToken_",
          "type": "address"
        }
      ],
      "name": "FHEAuctionNativeDeployed",
      "type": "event"
    },
    {
      "anonymous": false,
      "inputs": [
        {
          "indexed": true,
          "internalType": "address",
          "name": "previousOwner",
          "type": "address"
        },
        {
          "indexed": true,
          "internalType": "address",
          "name": "newOwner",
          "type": "address"
        }
      ],
      "name": "OwnershipTransferStarted",
      "type": "event"
    },
    {
      "anonymous": false,
      "inputs": [
        {
          "indexed": true,
          "internalType": "address",
          "name": "previousOwner",
          "type": "address"
        },
        {
          "indexed": true,
          "internalType": "address",
          "name": "newOwner",
          "type": "address"
        }
      ],
      "name": "OwnershipTransferred",
      "type": "event"
    },
    {
      "inputs": [],
      "name": "acceptOwnership",
      "outputs": [],
      "stateMutability": "nonpayable",
      "type": "function"
    },
    {
      "inputs": [
        {
          "internalType": "bytes32",
          "name": "salt_",
          "type": "bytes32"
        },
        {
          "internalType": "address",
          "name": "beneficiary_",
          "type": "address"
        },
        {
          "internalType": "address",
          "name": "auctionToken_",
          "type": "address"
        },
        {
          "internalType": "uint256",
          "name": "minimumPaymentDeposit_",
          "type": "uint256"
        },
        {
          "internalType": "uint256",
          "name": "paymentPenalty_",
          "type": "uint256"
        }
      ],
      "name": "computeAuctionAddress",
      "outputs": [
        {
          "internalType": "address",
          "name": "",
          "type": "address"
        }
      ],
      "stateMutability": "view",
      "type": "function"
    },
    {
      "inputs": [],
      "name": "count",
      "outputs": [
        {
          "internalType": "uint256",
          "name": "",
          "type": "uint256"
        }
      ],
      "stateMutability": "view",
      "type": "function"
    },
    {
      "inputs": [
        {
          "internalType": "address",
          "name": "auctionOwner_",
          "type": "address"
        },
        {
          "internalType": "bytes32",
          "name": "salt_",
          "type": "bytes32"
        },
        {
          "internalType": "address",
          "name": "beneficiary_",
          "type": "address"
        },
        {
          "internalType": "uint256",
          "name": "auctionQuantity_",
          "type": "uint256"
        },
        {
          "internalType": "address",
          "name": "auctionToken_",
          "type": "address"
        },
        {
          "internalType": "uint16",
          "name": "maxBidCount_",
          "type": "uint16"
        },
        {
          "internalType": "uint8",
          "name": "tieBreakingRule_",
          "type": "uint8"
        },
        {
          "internalType": "uint256",
          "name": "minimumPaymentDeposit_",
          "type": "uint256"
        },
        {
          "internalType": "uint256",
          "name": "paymentPenalty_",
          "type": "uint256"
        }
      ],
      "name": "createNewAuction",
      "outputs": [
        {
          "internalType": "address",
          "name": "",
          "type": "address"
        }
      ],
      "stateMutability": "nonpayable",
      "type": "function"
    },
    {
      "inputs": [
        {
          "internalType": "bytes32",
          "name": "salt_",
          "type": "bytes32"
        },
        {
          "internalType": "address",
          "name": "beneficiary_",
          "type": "address"
        },
        {
          "internalType": "address",
          "name": "auctionToken_",
          "type": "address"
        }
      ],
      "name": "getAuction",
      "outputs": [
        {
          "internalType": "address",
          "name": "",
          "type": "address"
        }
      ],
      "stateMutability": "view",
      "type": "function"
    },
    {
      "inputs": [],
      "name": "isNative",
      "outputs": [
        {
          "internalType": "bool",
          "name": "",
          "type": "bool"
        }
      ],
      "stateMutability": "view",
      "type": "function"
    },
    {
      "inputs": [],
      "name": "owner",
      "outputs": [
        {
          "internalType": "address",
          "name": "",
          "type": "address"
        }
      ],
      "stateMutability": "view",
      "type": "function"
    },
    {
      "inputs": [],
      "name": "pendingOwner",
      "outputs": [
        {
          "internalType": "address",
          "name": "",
          "type": "address"
        }
      ],
      "stateMutability": "view",
      "type": "function"
    },
    {
      "inputs": [],
      "name": "renounceOwnership",
      "outputs": [],
      "stateMutability": "nonpayable",
      "type": "function"
    },
    {
      "inputs": [
        {
          "internalType": "address",
          "name": "newOwner",
          "type": "address"
        }
      ],
      "name": "transferOwnership",
      "outputs": [],
      "stateMutability": "nonpayable",
      "type": "function"
    }
  ],
  "transactionHash": "0xeba1cdfb0fc79a05d07ce9b3cd07ee7986edd5bd05cd384b12fe14aca0b744bb",
  "args": [
    {
      "enginePriceIdFactory": "0x1E3Da707285e756a332C0325C470BEdD0f569879",
      "enginePriceQuantityIdFactory": "0x69E4ba3B754e60e13AA8326dD611F65535Cd44B0",
      "enginePriceRandomFactory": "0x1032300C568A0776e8d31Ff12005309d58704Ec6",
      "engineProRataFactory": "0xc57db6C16f6FAB6933177a4d0f2C69A0D3f632ED"
    }
  ],
  "numDeployments": 2,
  "solcInputHash": "b4131e9528337a45f242293135657fca",
  "bytecode": "0x608060405234801562000010575f80fd5b5060405162004d7438038062004d748339810160408190526200003391620004ab565b8033806200005b57604051631e4fbdf760e01b81525f60048201526024015b60405180910390fd5b620000668162000429565b5080516001600160a01b0316156200016857336001600160a01b0316815f01516001600160a01b0316638da5cb5b6040518163ffffffff1660e01b8152600401602060405180830381865afa158015620000c2573d5f803e3d5ffd5b505050506040513d601f19601f82011682018060405250810190620000e8919062000543565b6001600160a01b0316146200011f57335b60405163118cdaa760e01b81526001600160a01b03909116600482015260240162000052565b80515f805260026020527fac33ff75c19e70fe83507db0d683fd3465c996598dc972688b7ace676c89077b80546001600160a01b0319166001600160a01b039092169190911790555b60208101516001600160a01b0316156200025157336001600160a01b031681602001516001600160a01b0316638da5cb5b6040518163ffffffff1660e01b8152600401602060405180830381865afa158015620001c7573d5f803e3d5ffd5b505050506040513d601f19601f82011682018060405250810190620001ed919062000543565b6001600160a01b031614620002035733620000f9565b60208181015160015f5260029091527fe90b7bceb6e7df5418fb78d8ee546e97c83a08bbccc01a0644d599ccd2a7c2e080546001600160a01b0319166001600160a01b039092169190911790555b60408101516001600160a01b0316156200033957336001600160a01b031681604001516001600160a01b0316638da5cb5b6040518163ffffffff1660e01b8152600401602060405180830381865afa158015620002b0573d5f803e3d5ffd5b505050506040513d601f19601f82011682018060405250810190620002d6919062000543565b6001600160a01b031614620002ec5733620000f9565b604081015160025f8190526020527f679795a0195a1b76cdebb7c51d74e058aee92919b8c3389af86ef24535e8a28c80546001600160a01b0319166001600160a01b039092169190911790555b60608101516001600160a01b0316156200042157336001600160a01b031681606001516001600160a01b0316638da5cb5b6040518163ffffffff1660e01b8152600401602060405180830381865afa15801562000398573d5f803e3d5ffd5b505050506040513d601f19601f82011682018060405250810190620003be919062000543565b6001600160a01b031614620003d45733620000f9565b606081015160035f5260026020527f88601476d11616a71c5be67555bd1dff4b1cbf21533d2669b768b61518cfe1c380546001600160a01b0319166001600160a01b039092169190911790555b505062000568565b600180546001600160a01b0319169055620004448162000447565b50565b5f80546001600160a01b038381166001600160a01b0319831681178455604051919092169283917f8be0079c531659141344cd1fd0a4f28419497f9722a3daafe3b4186f6b6457e09190a35050565b6001600160a01b038116811462000444575f80fd5b5f60808284031215620004bc575f80fd5b604051608081016001600160401b0381118282101715620004eb57634e487b7160e01b5f52604160045260245ffd5b6040528251620004fb8162000496565b815260208301516200050d8162000496565b60208201526040830151620005228162000496565b60408201526060830151620005378162000496565b60608201529392505050565b5f6020828403121562000554575f80fd5b8151620005618162000496565b9392505050565b6147fe80620005765f395ff3fe608060405234801562000010575f80fd5b5060043610620000c8575f3560e01c806379ba5097116200007b578063dd74b3c5116200005f578063dd74b3c51462000160578063e30c39781462000177578063f2fde38b1462000189575f80fd5b806379ba509714620001455780638da5cb5b146200014f575f80fd5b80632fd8a2cc11620000af5780632fd8a2cc1462000112578063715018a6146200012957806373cfc6b21462000135575f80fd5b806306661abd14620000cc5780632711e17e14620000e2575b5f80fd5b6004546040519081526020015b60405180910390f35b620000f9620000f336600462000984565b620001a0565b6040516001600160a01b039091168152602001620000d9565b620000f962000123366004620009d7565b62000235565b62000133620005b9565b005b60405160018152602001620000d9565b62000133620005d0565b5f546001600160a01b0316620000f9565b620000f96200017136600462000a7d565b62000618565b6001546001600160a01b0316620000f9565b620001336200019a36600462000ac1565b6200064e565b5f80620001af878787620006c1565b90505f620001bc62000711565b90505f8585604051602001620001dc929190918252602082015260400190565b60405160208183030381529060405290505f82826040516020016200020392919062000b0e565b6040516020818303038152906040529050620002278482805190602001206200073d565b9a9950505050505050505050565b5f805f620002458b8b8a620006c1565b5f818152600360205260409020549091506001600160a01b031615620002b25760405162461bcd60e51b815260206004820152601860248201527f61756374696f6e20616c7265616479206465706c6f796564000000000000000060448201526064015b60405180910390fd5b5f620002bd62000711565b90505f8686604051602001620002dd929190918252602082015260400190565b60405160208183030381529060405290505f82826040516020016200030492919062000b0e565b60405160208183030381529060405290505f620003298583805190602001206200073d565b905062000337858262000754565b620003445f8684620007fe565b9550806001600160a01b0316866001600160a01b031614620003cf5760405162461bcd60e51b815260206004820152602960248201527f50616e69633a2061756374696f6e4164647220213d20636f6d7075746564417560448201527f6374696f6e4164647200000000000000000000000000000000000000000000006064820152608401620002a9565b50505050505f620003f78660ff165f908152600260205260409020546001600160a01b031690565b6040516307e1c07160e41b81526001600160a01b0384811660048301529190911690637e1c0710906024016020604051808303815f875af11580156200043f573d5f803e3d5ffd5b505050506040513d601f19601f8201168201806040525081019062000465919062000b26565b60405163200bd8a760e11b81526001600160a01b0380831660048301528c811660248301528a81166044830152606482018c905261ffff8a1660848301529192508391821690634017b14e9060a4015f604051808303815f87803b158015620004cc575f80fd5b505af1158015620004df573d5f803e3d5ffd5b50505050806001600160a01b031663f2fde38b8e6040518263ffffffff1660e01b81526004016200051f91906001600160a01b0391909116815260200190565b5f604051808303815f87803b15801562000537575f80fd5b505af11580156200054a573d5f803e3d5ffd5b505050508b836001600160a01b03167f6d0657c00185a9844fd840f785fbf7c952fa429da72ae8962aa3fbf21e2d04a58d8c604051620005a09291906001600160a01b0392831681529116602082015260400190565b60405180910390a350909b9a5050505050505050505050565b620005c362000897565b620005ce5f620008c5565b565b60015433906001600160a01b031681146200060a5760405163118cdaa760e01b81526001600160a01b0382166004820152602401620002a9565b6200061581620008c5565b50565b5f620006446200062a858585620006c1565b5f908152600360205260409020546001600160a01b031690565b90505b9392505050565b6200065862000897565b600180546001600160a01b0383166001600160a01b03199091168117909155620006895f546001600160a01b031690565b6001600160a01b03167f38d16b8cac22d99fc7c124b9cd0de2d3fa1faef420bfe791d8c362d765e2270060405160405180910390a350565b5f838383604051602001620006f2939291909283526001600160a01b03918216602084015216604082015260600190565b6040516020818303038152906040528051906020012090509392505050565b606060405180602001620007259062000961565b601f1982820381018352601f90910116604052919050565b5f6200074b838330620008e0565b90505b92915050565b5f828152600360205260409020546001600160a01b031615620007ba5760405162461bcd60e51b815260206004820152601860248201527f41756374696f6e20616c7265616479206465706c6f79656400000000000000006044820152606401620002a9565b5f82815260036020526040812080546001600160a01b0319166001600160a01b0384161790556004805460019290620007f590849062000b44565b90915550505050565b5f834710156200082b5760405163cf47918160e01b815247600482015260248101859052604401620002a9565b81515f036200084d57604051631328927760e21b815260040160405180910390fd5b8282516020840186f590503d1519811516156200086f576040513d5f823e3d81fd5b6001600160a01b038116620006475760405163b06ebf3d60e01b815260040160405180910390fd5b5f546001600160a01b03163314620005ce5760405163118cdaa760e01b8152336004820152602401620002a9565b600180546001600160a01b0319169055620006158162000912565b5f604051836040820152846020820152828152600b8101905060ff8153605590206001600160a01b0316949350505050565b5f80546001600160a01b038381166001600160a01b0319831681178455604051919092169283917f8be0079c531659141344cd1fd0a4f28419497f9722a3daafe3b4186f6b6457e09190a35050565b613c8d8062000b6583390190565b6001600160a01b038116811462000615575f80fd5b5f805f805f60a0868803121562000999575f80fd5b853594506020860135620009ad816200096f565b93506040860135620009bf816200096f565b94979396509394606081013594506080013592915050565b5f805f805f805f805f6101208a8c031215620009f1575f80fd5b8935620009fe816200096f565b985060208a0135975060408a013562000a17816200096f565b965060608a0135955060808a013562000a30816200096f565b945060a08a013561ffff8116811462000a47575f80fd5b935060c08a013560ff8116811462000a5d575f80fd5b8093505060e08a013591506101008a013590509295985092959850929598565b5f805f6060848603121562000a90575f80fd5b83359250602084013562000aa4816200096f565b9150604084013562000ab6816200096f565b809150509250925092565b5f6020828403121562000ad2575f80fd5b813562000647816200096f565b5f81515f5b8181101562000b00576020818501810151868301520162000ae4565b505f93019283525090919050565b5f6200064462000b1f838662000adf565b8462000adf565b5f6020828403121562000b37575f80fd5b815162000647816200096f565b808201808211156200074e57634e487b7160e01b5f52601160045260245ffdfe60c060405234801562000010575f80fd5b5060405162003c8d38038062003c8d8339810160408190526200003391620002cf565b818133620001b2620000d6604080516080810182525f808252602082018190529181018290526060810191909152506040805160808101825273fee8407e2f5e3ee68ad77cae98c434e637f516e5815273687408ab54661ba0b4aef3a44156c616c6955e07602082015273fb03be574d14c256d56f09a198b586bdfc0a9de291810191909152739d6891a6240d6130c54ae243d8005063d05fe14b606082015290565b80517fed8d60e34876f751cc8b014c560745351147d9de11b9347c854e881b128ea60080546001600160a01b03199081166001600160a01b039384161790915560208301517fed8d60e34876f751cc8b014c560745351147d9de11b9347c854e881b128ea6018054831691841691909117905560408301517fed8d60e34876f751cc8b014c560745351147d9de11b9347c854e881b128ea6028054831691841691909117905560608301517fed8d60e34876f751cc8b014c560745351147d9de11b9347c854e881b128ea6038054909216921691909117905550565b7f93ab6e17f2c461cce6ea5d4ec117e51dda77a64affc2b2c05f8cd440def0e70080546001600160a01b0319167333347831500f1e73f0cccbb95c9f86b94d7b11231790556001600160a01b0381166200022657604051631e4fbdf760e01b81525f60048201526024015b60405180910390fd5b620002318162000276565b50600160045581811115620002645760405163c5e0e1ed60e01b815260048101839052602481018290526044016200021d565b60a09190915260805250620002f29050565b600380546001600160a01b03838116610100818102610100600160a81b031985161790945560405193909204169182907f8be0079c531659141344cd1fd0a4f28419497f9722a3daafe3b4186f6b6457e0905f90a35050565b5f8060408385031215620002e1575f80fd5b505080516020909101519092909150565b60805160a05161395d620003305f395f81816106d401528181610cc901528181612bfa0152612c3601525f818161061f0152612ae4015261395d5ff3fe60806040526004361061037c575f3560e01c80636b22ce24116101d3578063bb4872de116100fd578063d0aecc3a1161009d578063ec3090381161006d578063ec309038146109b0578063ec4e2727146109c7578063f2fde38b146109ed578063f7decfcc14610a0c575f80fd5b8063d0aecc3a14610968578063d0e30db01461097c578063e0f0541214610984578063e70b279d14610998575f80fd5b8063c7c3b1c1116100d8578063c7c3b1c114610905578063c9d4623f14610919578063cc42175a14610936578063cfc771b014610949575f80fd5b8063bb4872de146108c2578063bbe457ac146108d9578063bbeee6d1146108f1575f80fd5b8063844dc1191161017357806399fdb3201161014357806399fdb320146108535780639b357007146108705780639dce46121461088f578063b40a5627146108ae575f80fd5b8063844dc119146107e25780638da5cb5b14610809578063938328361461082b5780639435c8871461083f575f80fd5b8063715018a6116101ae578063715018a61461078957806373cfc6b21461079d57806378e97925146107b057806381cee591146107c3575f80fd5b80636b22ce24146106f85780636dc7a6271461074157806370a0823114610755575f80fd5b806338af3eed116102b45780634e80b9e41161025457806359bc783f1161022457806359bc783f1461067f5780635c94cb0c1461069e57806362b86754146106b2578063636bfbab146106c6575f80fd5b80634e80b9e4146106115780634e8602bd146106435780634fef7c3314610657578063597e1fb51461066b575f80fd5b806347535d7b1161028f57806347535d7b146105b65780634b585d2d146105ca5780634e6719ac146105e95780634e71d92d146105fd575f80fd5b806338af3eed1461055257806339bf9a77146105835780634017b14e14610597575f80fd5b806326562dac1161031f57806329e9e72c116102fa57806329e9e72c146104d65780632de40ce31461050b5780632e1a7d4d1461051f5780633197cbb61461053e575f80fd5b806326562dac1461045b5780632743c6951461049557806327c1c21d146104c2575f80fd5b80630c08bf881161035a5780630c08bf88146103f6578063158ef93e1461040a578063194307bf1461042057806323e45f6214610439575f80fd5b806302dda9cf1461038057806307da68f5146103a9578063099a019d146103bf575b5f80fd5b34801561038b575f80fd5b50610394610a2b565b60405190151581526020015b60405180910390f35b3480156103b4575f80fd5b506103bd610a66565b005b3480156103ca575f80fd5b50335f9081526017602052604090208054600190910154604080519283526020830191909152016103a0565b348015610401575f80fd5b506103bd610aec565b348015610415575f80fd5b506002541515610394565b34801561042b575f80fd5b506002546008161515610394565b348015610444575f80fd5b5061044d610b86565b6040519081526020016103a0565b348015610466575f80fd5b50610394610475366004613420565b6001600160a01b03165f9081526015602052604090205460ff1660011490565b3480156104a0575f80fd5b506104a9610bf1565b60405167ffffffffffffffff90911681526020016103a0565b3480156104cd575f80fd5b5061044d610c5c565b3480156104e1575f80fd5b506103946104f036600461344a565b61ffff165f9081526016602052604090205460ff1660011490565b348015610516575f80fd5b50610394610c65565b34801561052a575f80fd5b506103bd610539366004613465565b610c6f565b348015610549575f80fd5b5060015461044d565b34801561055d575f80fd5b506011546001600160a01b03165b6040516001600160a01b0390911681526020016103a0565b34801561058e575f80fd5b506103bd610e5b565b3480156105a2575f80fd5b506103bd6105b136600461347c565b610ff4565b3480156105c1575f80fd5b50610394611279565b3480156105d5575f80fd5b506103bd6105e43660046134ed565b61128a565b3480156105f4575f80fd5b5060135461044d565b348015610608575f80fd5b506103bd6112cf565b34801561061c575f80fd5b507f000000000000000000000000000000000000000000000000000000000000000061044d565b34801561064e575f80fd5b5061044d6114c4565b348015610662575f80fd5b506103bd6114d4565b348015610676575f80fd5b5061039461164e565b34801561068a575f80fd5b5061039461069936600461344a565b611659565b3480156106a9575f80fd5b506103946116b8565b3480156106bd575f80fd5b506104a9611755565b3480156106d1575f80fd5b507f000000000000000000000000000000000000000000000000000000000000000061044d565b348015610703575f80fd5b50610717610712366004613530565b61179c565b6040805160ff909416845267ffffffffffffffff92831660208501529116908201526060016103a0565b34801561074c575f80fd5b506103946118b8565b348015610760575f80fd5b5061044d61076f366004613420565b6001600160a01b03165f9081526018602052604090205490565b348015610794575f80fd5b506103bd6118ef565b3480156107a8575f80fd5b506001610394565b3480156107bb575f80fd5b505f5461044d565b3480156107ce575f80fd5b506103bd6107dd36600461344a565b611900565b3480156107ed575f80fd5b506107f6611979565b60405161ffff90911681526020016103a0565b348015610814575f80fd5b5060035461010090046001600160a01b031661056b565b348015610836575f80fd5b5061044d6119e4565b34801561084a575f80fd5b506103bd611a2b565b34801561085e575f80fd5b506012546001600160a01b031661056b565b34801561087b575f80fd5b506103bd61088a36600461355c565b611ad6565b34801561089a575f80fd5b506103bd6108a9366004613585565b611b32565b3480156108b9575f80fd5b506107f6611b6d565b3480156108cd575f80fd5b5060035460ff16610394565b3480156108e4575f80fd5b5060145461ffff166107f6565b3480156108fc575f80fd5b50610394611bb4565b348015610910575f80fd5b50610394611bcc565b348015610924575f80fd5b50600f546001600160a01b031661056b565b6103bd6109443660046135a5565b611c31565b348015610954575f80fd5b506103bd61096336600461361e565b611c8f565b348015610973575f80fd5b50610394611cf2565b6103bd611d27565b34801561098f575f80fd5b506104a9611d41565b3480156109a3575f80fd5b50601b5461ffff166107f6565b3480156109bb575f80fd5b50600254600114610394565b3480156109d2575f80fd5b50335f908152601c602052604090205461ffff161515610394565b3480156109f8575f80fd5b506103bd610a07366004613420565b611d88565b348015610a17575f80fd5b506103bd610a263660046135a5565b611dc2565b5f610a3461164e565b610a51576040516345a5a96f60e11b815260040160405180910390fd5b610a59611de9565b610a61611e10565b905090565b610a6e611e19565b610a76611e4c565b610a7e611e76565b600f5f9054906101000a90046001600160a01b03166001600160a01b03166343d726d66040518163ffffffff1660e01b81526004015f604051808303815f87803b158015610aca575f80fd5b505af1158015610adc573d5f803e3d5ffd5b50505050610aea6001600455565b565b610af4611e19565b610afc611e4c565b610b04611ea2565b6011546012546040516370a0823160e01b8152306004820152610b7c926001600160a01b039081169216906370a0823190602401602060405180830381865afa158015610b53573d5f803e3d5ffd5b505050506040513d601f19601f82011682018060405250810190610b779190613658565b611edf565b610aea6001600455565b600f54604080516311f22fb160e11b815290515f926001600160a01b0316916323e45f629160048083019260209291908290030181865afa158015610bcd573d5f803e3d5ffd5b505050506040513d601f19601f82011682018060405250810190610a619190613658565b60105460408051631606240760e01b815290515f926001600160a01b03169163160624079160048083019260209291908290030181865afa158015610c38573d5f803e3d5ffd5b505050506040513d601f19601f82011682018060405250810190610a61919061366f565b5f610a616120b9565b5f610a61336120dd565b610c77611e4c565b6002610c816120b9565b1615610ca057604051636f312cbd60e01b815260040160405180910390fd5b335f610cab826120dd565b6001600160a01b0383165f90815260186020526040902054909150807f00000000000000000000000000000000000000000000000000000000000000008315610d8e57610cf6612155565b80831015610d81578215610d775760405162461bcd60e51b815260206004820152602a60248201527f50616e69633a2062616c616e6365203e20302026262062616c616e6365203c2060448201527f6d696e4465706f7369740000000000000000000000000000000000000000000060648201526084015b60405180910390fd5b5050505050610e4e565b610d8b818361369e565b91505b81861115610d9a578195505b855f03610dab575050505050610e4e565b610db5858761217d565b8315610e48576001600160a01b0385165f90815260186020526040902054811115610e485760405162461bcd60e51b815260206004820152602560248201527f50616e69633a205f62616c616e6365735b6269646465725d203c206d696e446560448201527f706f7369740000000000000000000000000000000000000000000000000000006064820152608401610d6e565b50505050505b610e586001600455565b50565b610e63611e4c565b600254610e83576040516321c4e35760e21b815260040160405180910390fd5b600f5460408051634377536160e11b815290515f926001600160a01b0316916386eea6c29160048083019260209291908290030181865afa158015610eca573d5f803e3d5ffd5b505050506040513d601f19601f82011682018060405250810190610eee9190613658565b905080610f0e5760405163ce346a3560e01b815260040160405180910390fd5b610f188130612188565b610f8a5760405162461bcd60e51b815260206004820152603160248201527f50616e69633a20544648452e6973416c6c6f7765642870752c2061646472657360448201527f7328746869732929203d3d2066616c73650000000000000000000000000000006064820152608401610d6e565b6040805160018082528183019092525f916020808301908036833701905050905081815f81518110610fbe57610fbe6136b1565b6020908102919091010152610fe781634ee7230960e11b5f610fe14260646136c5565b5f61219a565b505050610aea6001600455565b610ffc611e19565b611004611e4c565b6001600160a01b038516158061108b5750306001600160a01b0316856001600160a01b0316638da5cb5b6040518163ffffffff1660e01b8152600401602060405180830381865afa15801561105b573d5f803e3d5ffd5b505050506040513d601f19601f8201168201806040525081019061107f91906136d8565b6001600160a01b031614155b156110b45760405163e9c5008f60e01b81526001600160a01b0386166004820152602401610d6e565b6001600160a01b0384166110e657604051631a3b45fd60e01b81526001600160a01b0385166004820152602401610d6e565b6001600160a01b03831661111857604051630db57ed560e01b81526001600160a01b0384166004820152602401610d6e565b815f0361113b57604051630ea0fe6d60e21b815260048101839052602401610d6e565b6111436122c4565b600f80546001600160a01b0387811673ffffffffffffffffffffffffffffffffffffffff199283168117909355601180548883169084161790556012805491871691909216179055604051631f29034760e21b81526004810184905261ffff83166024820152637ca40d1c906044015f604051808303815f87803b1580156111c9575f80fd5b505af11580156111db573d5f803e3d5ffd5b50505050846001600160a01b031663fddcc1486040518163ffffffff1660e01b8152600401602060405180830381865afa15801561121b573d5f803e3d5ffd5b505050506040513d601f19601f8201168201806040525081019061123f91906136d8565b6010805473ffffffffffffffffffffffffffffffffffffffff19166001600160a01b039290921691909117905560016004555b5050505050565b5f60036112846120b9565b14905090565b611292611e19565b61129a611e4c565b6112a482826122ec565b6011546112c1906001600160a01b03166112bc6119e4565b61235b565b6112cb6001600455565b5050565b6112d7611e4c565b6112df61164e565b6112fc576040516345a5a96f60e11b815260040160405180910390fd5b600f546040516302f64cdf60e41b81523360048201819052915f916001600160a01b0390911690632f64cdf090602401602060405180830381865afa158015611347573d5f803e3d5ffd5b505050506040513d601f19601f8201168201806040525081019061136b91906136f3565b90508061ffff165f0361139b57604051626866c760e21b81526001600160a01b0383166004820152602401610d6e565b6113bf826001600160a01b03165f9081526015602052604090205460ff1660011490565b156113e857604051632058b6db60e01b81526001600160a01b0383166004820152602401610d6e565b6113f061253e565b6114185760405163096b647560e11b81526001600160a01b0383166004820152602401610d6e565b600f54604051630de7056b60e01b815261ffff831660048201525f9182916001600160a01b0390911690630de7056b906024016040805180830381865afa158015611465573d5f803e3d5ffd5b505050506040513d601f19601f82011682018060405250810190611489919061370e565b91509150805f036114b85760405163096b647560e11b81526001600160a01b0385166004820152602401610d6e565b610adc8484848461254f565b5f8054600154610a61919061369e565b6114dc611e4c565b6114e461164e565b611501576040516345a5a96f60e11b815260040160405180910390fd5b335f818152601c602052604081205461ffff1690819003611615575f61152f600f546001600160a01b031690565b6040516302f64cdf60e41b81526001600160a01b0385811660048301529190911690632f64cdf090602401602060405180830381865afa158015611575573d5f803e3d5ffd5b505050506040513d601f19601f8201168201806040525081019061159991906136f3565b90508061ffff165f036115c957604051626866c760e21b81526001600160a01b0384166004820152602401610d6e565b601b546115db9061ffff166001613730565b6001600160a01b0384165f908152601c60205260409020805461ffff831661ffff199182168117909255601b805490911690911790559150505b6116236104f0600183613752565b1561162f575050610b7c565b61164261163d600183613752565b612605565b5050610aea6001600455565b5f60076112846120b9565b5f61166261164e565b61167f576040516345a5a96f60e11b815260040160405180910390fd5b61169e8261ffff165f9081526016602052604090205460ff1660011490565b156116aa57505f919050565b6116b26126ce565b92915050565b5f6116c4600254151590565b6116e1576040516321c4e35760e21b815260040160405180910390fd5b600f5f9054906101000a90046001600160a01b03166001600160a01b0316635c94cb0c6040518163ffffffff1660e01b8152600401602060405180830381865afa158015611731573d5f803e3d5ffd5b505050506040513d601f19601f82011682018060405250810190610a61919061376d565b601054604080516318ae19d560e21b815290515f926001600160a01b0316916362b867549160048083019260209291908290030181865afa158015610c38573d5f803e3d5ffd5b5f805f6117a761164e565b6117c4576040516345a5a96f60e11b815260040160405180910390fd5b6117cc611e4c565b600f5460405163b189087960e01b815267ffffffffffffffff8716600482015285151560248201526001600160a01b039091169063b1890879906044016060604051808303815f875af1158015611825573d5f803e3d5ffd5b505050506040513d601f19601f820116820180604052508101906118499190613788565b6040805167ffffffffffffffff8a8116825260ff861660208301528481168284015283166060820152905193965091945092507f443e8452f1c9d1c508dd3e09780601c68bb958bf63e7dfc2b9997c0424a31aab919081900360800190a16118b16001600455565b9250925092565b5f6118c161164e565b6118de576040516345a5a96f60e11b815260040160405180910390fd5b6118e6611de9565b610a613361274a565b6118f7611e19565b610aea5f612802565b611908611e4c565b61191061164e565b61192d576040516345a5a96f60e11b815260040160405180910390fd5b61194c8161ffff165f9081526016602052604090205460ff1660011490565b1561197057604051635a18208d60e11b815261ffff82166004820152602401610d6e565b610e4e81612605565b600f546040805163c15bd28f60e01b815290515f926001600160a01b03169163c15bd28f9160048083019260209291908290030181865afa1580156119c0573d5f803e3d5ffd5b505050506040513d601f19601f82011682018060405250810190610a6191906136f3565b600f546040805163630b7a0960e11b815290515f926001600160a01b03169163c616f4129160048083019260209291908290030181865afa158015610bcd573d5f803e3d5ffd5b611a33611e4c565b611a3b612155565b611a43611de9565b6040805180820182525f808252602080830182815233808452601790925291849020925183559051600190920191909155600f549151631a6c4ac160e31b815260048101919091526001600160a01b039091169063d3625608906024015f604051808303815f87803b158015611ab7575f80fd5b505af1158015611ac9573d5f803e3d5ffd5b50505050610b7c33612872565b7f93ab6e17f2c461cce6ea5d4ec117e51dda77a64affc2b2c05f8cd440def0e700546001600160a01b03163314611b0b575f80fd5b5f83815260196020526040902054611b2d906001600160a01b03168383612895565b505050565b7f93ab6e17f2c461cce6ea5d4ec117e51dda77a64affc2b2c05f8cd440def0e700546001600160a01b03163314611b67575f80fd5b60135550565b600f546040805163147b524560e11b815290515f926001600160a01b0316916328f6a48a9160048083019260209291908290030181865afa1580156119c0573d5f803e3d5ffd5b5f6003600254148015610a6157505060035460ff1690565b6002545f90801580611bde5750600981145b80611be95750600f81145b15611bf5575f91505090565b5f611bfe6120b9565b90506003811480611c0f5750600781145b15611c2857611c1c612bbe565b611c28575f9250505090565b60019250505090565b611c39612155565b611c41611e4c565b335f81815260186020526040812054611c5b9034906136c5565b9050611c6681612bf8565b611c708234612c62565b611c7d8287878787612c92565b5050611c896001600455565b50505050565b7f93ab6e17f2c461cce6ea5d4ec117e51dda77a64affc2b2c05f8cd440def0e700546001600160a01b03163314611cc4575f80fd5b5f848152601a6020526040902054611cdf9061ffff16612e2b565b611c89611ceb84612ec3565b8383612895565b335f908152601c602052604081205461ffff16808203611d13575f91505090565b611d216104f0600183613752565b91505090565b611d2f612155565b611d37611e4c565b610b7c3334612c62565b6010546040805163175068fb60e11b815290515f926001600160a01b031691632ea0d1f69160048083019260209291908290030181865afa158015610c38573d5f803e3d5ffd5b611d90611e19565b6001600160a01b038116611db957604051631e4fbdf760e01b81525f6004820152602401610d6e565b610e5881612802565b611dca611e4c565b611dd2612155565b611ddf3385858585612c92565b611c896001600455565b611df2336120dd565b610aea57604051626866c760e21b8152336004820152602401610d6e565b5f610a616126ce565b6003546001600160a01b03610100909104163314610aea5760405163118cdaa760e01b8152336004820152602401610d6e565b600260045403611e6f57604051633ee5aeb560e01b815260040160405180910390fd5b6002600455565b611e7e611bb4565b611e9b57604051632db668c360e01b815260040160405180910390fd5b6007600255565b611eaa611bcc565b611ec757604051633437b5dd60e11b815260040160405180910390fd5b600160025403611ed8576009600255565b600f600255565b805f03611eea575050565b6012546040516370a0823160e01b81526001600160a01b0384811660048301525f9216906370a0823190602401602060405180830381865afa158015611f32573d5f803e3d5ffd5b505050506040513d601f19601f82011682018060405250810190611f569190613658565b60125460405163a9059cbb60e01b81526001600160a01b0386811660048301526024820186905292935091169063a9059cbb906044016020604051808303815f875af1158015611fa8573d5f803e3d5ffd5b505050506040513d601f19601f82011682018060405250810190611fcc919061376d565b506012546040516370a0823160e01b81526001600160a01b0385811660048301525f9216906370a0823190602401602060405180830381865afa158015612015573d5f803e3d5ffd5b505050506040513d601f19601f820116820180604052508101906120399190613658565b905082612046838361369e565b14611c895760405162461bcd60e51b815260206004820152602e60248201527f50616e69633a2862616c616e63654166746572202d2062616c616e636542656660448201527f6f72652920213d20616d6f756e740000000000000000000000000000000000006064820152608401610d6e565b6002545f9060021981016120d85760015442106120d857600417919050565b919050565b600f546040516302f64cdf60e41b81526001600160a01b0383811660048301525f921690632f64cdf090602401602060405180830381865afa158015612125573d5f803e3d5ffd5b505050506040513d601f19601f8201168201806040525081019061214991906136f3565b61ffff16151592915050565b600361215f6120b9565b14610aea57604051631bb5f5b360e31b815260040160405180910390fd5b6112cb828383612f31565b5f6121938383612f45565b9392505050565b7fed8d60e34876f751cc8b014c560745351147d9de11b9347c854e881b128ea600805460405163155f840160e21b81525f92916001600160a01b03169063557e1004906121eb908a90600401613811565b5f604051808303815f87803b158015612202575f80fd5b505af1158015612214573d5f803e3d5ffd5b505050505f6122407f93ab6e17f2c461cce6ea5d4ec117e51dda77a64affc2b2c05f8cd440def0e70090565b8054604051634c0d927760e01b81529192506001600160a01b031690634c0d927790612278908b908b908b908b908b90600401613823565b6020604051808303815f875af1158015612294573d5f803e3d5ffd5b505050506040513d601f19601f820116820180604052508101906122b89190613658565b98975050505050505050565b600254156122e55760405163aed5959560e01b815260040160405180910390fd5b6001600255565b60025460011461230f576040516310d50e4f60e21b815260040160405180910390fd5b815f0361232f57604051637616640160e01b815260040160405180910390fd5b6003600255425f8190556123449083906136c5565b6001556003805460ff191691151591909117905550565b805f03612366575050565b6012546040516370a0823160e01b81523060048201526001600160a01b03909116905f9082906370a0823190602401602060405180830381865afa1580156123b0573d5f803e3d5ffd5b505050506040513d601f19601f820116820180604052508101906123d49190613658565b6040516323b872dd60e01b81526001600160a01b038681166004830152306024830152604482018690529192505f918416906323b872dd906064016020604051808303815f875af115801561242b573d5f803e3d5ffd5b505050506040513d601f19601f8201168201806040525081019061244f919061376d565b9050806124895760405163603bb82760e01b81526001600160a01b0380851660048301528616602482015260448101859052606401610d6e565b6040516370a0823160e01b81523060048201525f906001600160a01b038516906370a0823190602401602060405180830381865afa1580156124cd573d5f803e3d5ffd5b505050506040513d601f19601f820116820180604052508101906124f19190613658565b9050846124fe848361369e565b146125365760405163603bb82760e01b81526001600160a01b0380861660048301528716602482015260448101869052606401610d6e565b505050505050565b5f8061254960135490565b11905090565b6040805160028082526060820183525f9260208301908036833701905050905082815f81518110612582576125826136b1565b602090810291909101015281816001815181106125a1576125a16136b1565b60209081029190910101525f6125c582639b35700760e01b83610fe14260646136c5565b5f908152601960205260409020805473ffffffffffffffffffffffffffffffffffffffff19166001600160a01b0397909716969096179095555050505050565b61260d6126ce565b61262a576040516370930e2960e11b815260040160405180910390fd5b600f54604051634ed1b02560e11b815261ffff831660048201525f91829182916001600160a01b031690639da3604a90602401606060405180830381865afa158015612678573d5f803e3d5ffd5b505050506040513d601f19601f8201168201806040525081019061269c919061387d565b925092509250805f036126c2576040516370930e2960e11b815260040160405180910390fd5b611c8984848484612fe4565b600f5460408051630185af3960e21b815290515f926001600160a01b031691630616bce49160048083019260209291908290030181865afa158015612715573d5f803e3d5ffd5b505050506040513d601f19601f82011682018060405250810190612739919061376d565b61274257505f90565b610a6161253e565b5f61276f826001600160a01b03165f9081526015602052604090205460ff1660011490565b1561277b57505f919050565b600f5f9054906101000a90046001600160a01b03166001600160a01b0316636dc7a6276040518163ffffffff1660e01b8152600401602060405180830381865afa1580156127cb573d5f803e3d5ffd5b505050506040513d601f19601f820116820180604052508101906127ef919061376d565b6127fa57505f919050565b6116b261253e565b600380546001600160a01b038381166101008181027fffffffffffffffffffffff0000000000000000000000000000000000000000ff85161790945560405193909204169182907f8be0079c531659141344cd1fd0a4f28419497f9722a3daafe3b4186f6b6457e0905f90a35050565b6001600160a01b0381165f90815260186020526040902054610e5890829061217d565b6001600160a01b0383166128eb5760405162461bcd60e51b815260206004820152601260248201527f50616e69633a20626964646572203d3d203000000000000000000000000000006044820152606401610d6e565b6128f4836130a4565b5f6128fe60135490565b90505f811161294f5760405162461bcd60e51b815260206004820152601860248201527f50616e69633a20756e69666f726d5072696365203d3d203000000000000000006044820152606401610d6e565b825f036129ca5781156129ca5760405162461bcd60e51b815260206004820152603860248201527f50616e69633a20636c65617256616c6964617465645072696365203d3d20302060448201527f262620636c656172576f6e5175616e7469747920213d203000000000000000006064820152608401610d6e565b8115612adb575f6129db83836138a8565b90505f8111612a2c5760405162461bcd60e51b815260206004820152601b60248201527f50616e69633a20626964646572447565416d6f756e74203d3d203000000000006044820152606401610d6e565b6001600160a01b0385165f90815260186020526040902054811115612ab95760405162461bcd60e51b815260206004820152602a60248201527f50616e69633a205f62616c616e6365735b6269646465725d203c20626964646560448201527f72447565416d6f756e74000000000000000000000000000000000000000000006064820152608401610d6e565b612ad585612acf6011546001600160a01b031690565b83612f31565b50612b21565b825f03612b21577f00000000000000000000000000000000000000000000000000000000000000008015612b1f57612b1f85612acf6011546001600160a01b031690565b505b6001600160a01b0384165f908152601860205260409020548015612b4957612b49858261217d565b6001600160a01b0385165f9081526018602052604090205415612bae5760405162461bcd60e51b815260206004820152601c60248201527f50616e69633a205f62616c616e6365735b6269646465725d203e2030000000006044820152606401610d6e565b8215611272576112728584611edf565b5f612bc7611b6d565b60145461ffff90811691161480610a615750612be1611b6d565b60145462010000900461ffff908116911614905090565b7f0000000000000000000000000000000000000000000000000000000000000000811015610e585760405163012479f760e01b8152600481018290527f00000000000000000000000000000000000000000000000000000000000000006024820152604401610d6e565b6001600160a01b0382165f9081526018602052604081208054839290612c899084906136c5565b90915550505050565b612c9b85613125565b5f6040518060400160405280612ce68786868080601f0160208091040260200160405190810160405280939291908181526020018383808284375f9201919091525061314692505050565b8152602001612d2a8686868080601f0160208091040260200160405190810160405280939291908181526020018383808284375f9201919091525061314692505050565b9052600f5481519192506001600160a01b031690612d489082613153565b612d56826020015182613153565b600f54825160208401516040516305ba01f160e21b81526001600160a01b038b81166004830152602482019390935260448101919091529116906316e807c4906064015f604051808303815f87803b158015612db0575f80fd5b505af1158015612dc2573d5f803e3d5ffd5b50505050612dd3825f01518861315d565b612de182602001518861315d565b8151612dec90613167565b612df98260200151613167565b506001600160a01b039095165f9081526017602090815260409091208651815595015160019095019490945550505050565b612e4a8161ffff165f9081526016602052604090205460ff1660011490565b15612e6e57604051635a18208d60e11b815261ffff82166004820152602401610d6e565b61ffff8082165f908152601660205260409020805460ff1916600117905560148054620100009004909116906002612ea5836138bf565b91906101000a81548161ffff021916908361ffff1602179055505050565b600f546040516321a6832960e21b815261ffff831660048201525f916001600160a01b03169063869a0ca490602401602060405180830381865afa158015612f0d573d5f803e3d5ffd5b505050506040513d601f19601f820116820180604052508101906116b291906136d8565b612f3b8382613171565b611b2d8282613198565b5f807fed8d60e34876f751cc8b014c560745351147d9de11b9347c854e881b128ea6008054604051632fd514cd60e11b8152600481018790526001600160a01b038681166024830152929350911690635faa299a90604401602060405180830381865afa158015612fb8573d5f803e3d5ffd5b505050506040513d601f19601f82011682018060405250810190612fdc919061376d565b949350505050565b604080516003808252608082019092525f916020820160608036833701905050905083815f81518110613019576130196136b1565b60209081029190910101528281600181518110613038576130386136b1565b60209081029190910101528181600281518110613057576130576136b1565b60209081029190910101525f61307b82630cfc771b60e41b83610fe14260646136c5565b5f908152601a60205260409020805461ffff191661ffff97909716969096179095555050505050565b6130c8816001600160a01b03165f9081526015602052604090205460ff1660011490565b156130f157604051632058b6db60e01b81526001600160a01b0382166004820152602401610d6e565b6001600160a01b0381165f908152601560205260408120805460ff191660011790556014805461ffff1691612ea5836138bf565b6001600160a01b0381165f90815260186020526040902054610e5890612bf8565b5f61219383836008613208565b6112cb828261332c565b6112cb82826133b3565b610e5881306133b3565b6001600160a01b0382165f9081526018602052604081208054839290612c8990849061369e565b5f826001600160a01b0316826040515f6040518083038185875af1925050503d805f81146131e1576040519150601f19603f3d011682016040523d82523d5f602084013e6131e6565b606091505b5050905080611b2d57604051631d42c86760e21b815260040160405180910390fd5b7fed8d60e34876f751cc8b014c560745351147d9de11b9347c854e881b128ea601546040516302e817ff60e41b81525f917fed8d60e34876f751cc8b014c560745351147d9de11b9347c854e881b128ea600916001600160a01b0390911690632e817ff0906132859088903390899060f88a901b906004016138df565b6020604051808303815f875af11580156132a1573d5f803e3d5ffd5b505050506040513d601f19601f820116820180604052508101906132c59190613658565b81546040516346ce4e4960e11b8152600481018390523360248201529193506001600160a01b031690638d9c9c92906044015f604051808303815f87803b15801561330e575f80fd5b505af1158015613320573d5f803e3d5ffd5b50505050509392505050565b7fed8d60e34876f751cc8b014c560745351147d9de11b9347c854e881b128ea60080546040516346ce4e4960e11b8152600481018590526001600160a01b03848116602483015290911690638d9c9c92906044015b5f604051808303815f87803b158015613398575f80fd5b505af11580156133aa573d5f803e3d5ffd5b50505050505050565b7fed8d60e34876f751cc8b014c560745351147d9de11b9347c854e881b128ea6008054604051631974142760e21b8152600481018590526001600160a01b038481166024830152909116906365d0509c90604401613381565b6001600160a01b0381168114610e58575f80fd5b5f60208284031215613430575f80fd5b81356121938161340c565b61ffff81168114610e58575f80fd5b5f6020828403121561345a575f80fd5b81356121938161343b565b5f60208284031215613475575f80fd5b5035919050565b5f805f805f60a08688031215613490575f80fd5b853561349b8161340c565b945060208601356134ab8161340c565b935060408601356134bb8161340c565b92506060860135915060808601356134d28161343b565b809150509295509295909350565b8015158114610e58575f80fd5b5f80604083850312156134fe575f80fd5b823591506020830135613510816134e0565b809150509250929050565b67ffffffffffffffff81168114610e58575f80fd5b5f8060408385031215613541575f80fd5b823561354c8161351b565b91506020830135613510816134e0565b5f805f6060848603121561356e575f80fd5b505081359360208301359350604090920135919050565b5f8060408385031215613596575f80fd5b50508035926020909101359150565b5f805f80606085870312156135b8575f80fd5b8435935060208501359250604085013567ffffffffffffffff808211156135dd575f80fd5b818701915087601f8301126135f0575f80fd5b8135818111156135fe575f80fd5b88602082850101111561360f575f80fd5b95989497505060200194505050565b5f805f8060808587031215613631575f80fd5b8435935060208501356136438161343b565b93969395505050506040820135916060013590565b5f60208284031215613668575f80fd5b5051919050565b5f6020828403121561367f575f80fd5b81516121938161351b565b634e487b7160e01b5f52601160045260245ffd5b818103818111156116b2576116b261368a565b634e487b7160e01b5f52603260045260245ffd5b808201808211156116b2576116b261368a565b5f602082840312156136e8575f80fd5b81516121938161340c565b5f60208284031215613703575f80fd5b81516121938161343b565b5f806040838503121561371f575f80fd5b505080516020909101519092909150565b61ffff81811683821601908082111561374b5761374b61368a565b5092915050565b61ffff82811682821603908082111561374b5761374b61368a565b5f6020828403121561377d575f80fd5b8151612193816134e0565b5f805f6060848603121561379a575f80fd5b835160ff811681146137aa575f80fd5b60208501519093506137bb8161351b565b60408501519092506137cc8161351b565b809150509250925092565b5f815180845260208085019450602084015f5b83811015613806578151875295820195908201906001016137ea565b509495945050505050565b602081525f61219360208301846137d7565b60a081525f61383560a08301886137d7565b7fffffffff0000000000000000000000000000000000000000000000000000000096909616602083015250604081019390935260608301919091521515608090910152919050565b5f805f6060848603121561388f575f80fd5b8351925060208401519150604084015190509250925092565b80820281158282048414176116b2576116b261368a565b5f61ffff8083168181036138d5576138d561368a565b6001019392505050565b8481525f60206001600160a01b03861660208401526080604084015284518060808501525f5b818110156139215786810183015185820160a001528201613905565b505f60a0828601015260a0601f19601f8301168501019250505060ff60f81b831660608301529594505050505056fea164736f6c6343000818000aa164736f6c6343000818000a",
  "devdoc": {
    "errors": {
      "Create2EmptyBytecode()": [
        {
          "details": "There's no code to deploy."
        }
      ],
      "FailedDeployment()": [
        {
          "details": "The deployment failed."
        }
      ],
      "InsufficientBalance(uint256,uint256)": [
        {
          "details": "The ETH balance of the account is not enough to perform the operation."
        }
      ],
      "OwnableInvalidOwner(address)": [
        {
          "details": "The owner is not a valid owner account. (eg. `address(0)`)"
        }
      ],
      "OwnableUnauthorizedAccount(address)": [
        {
          "details": "The caller account is not authorized to perform an operation."
        }
      ]
    },
    "kind": "dev",
    "methods": {
      "acceptOwnership()": {
        "details": "The new owner accepts the ownership transfer."
      },
      "owner()": {
        "details": "Returns the address of the current owner."
      },
      "pendingOwner()": {
        "details": "Returns the address of the pending owner."
      },
      "renounceOwnership()": {
        "details": "Leaves the contract without owner. It will not be possible to call `onlyOwner` functions. Can only be called by the current owner. NOTE: Renouncing ownership will leave the contract without an owner, thereby disabling any functionality that is only available to the owner."
      },
      "transferOwnership(address)": {
        "details": "Starts the ownership transfer of the contract to a new account. Replaces the pending transfer if there is one. Can only be called by the current owner. Setting `newOwner` to the zero address is allowed; this can be used to cancel an initiated ownership transfer."
      }
    },
    "version": 1
  },
  "userdoc": {
    "kind": "user",
    "methods": {},
    "version": 1
  },
  "storageLayout": {
    "storage": [
      {
        "astId": 8,
        "contract": "contracts/auctions/factories/FHEAuctionNativeFactory.sol:FHEAuctionNativeFactory",
        "label": "_owner",
        "offset": 0,
        "slot": "0",
        "type": "t_address"
      },
      {
        "astId": 156,
        "contract": "contracts/auctions/factories/FHEAuctionNativeFactory.sol:FHEAuctionNativeFactory",
        "label": "_pendingOwner",
        "offset": 0,
        "slot": "1",
        "type": "t_address"
      },
      {
        "astId": 7690,
        "contract": "contracts/auctions/factories/FHEAuctionNativeFactory.sol:FHEAuctionNativeFactory",
        "label": "_engineFactories",
        "offset": 0,
        "slot": "2",
        "type": "t_mapping(t_uint8,t_contract(FHEAuctionEngineFactory)12062)"
      },
      {
        "astId": 7694,
        "contract": "contracts/auctions/factories/FHEAuctionNativeFactory.sol:FHEAuctionNativeFactory",
        "label": "_auctionDeployed",
        "offset": 0,
        "slot": "3",
        "type": "t_mapping(t_bytes32,t_address)"
      },
      {
        "astId": 7696,
        "contract": "contracts/auctions/factories/FHEAuctionNativeFactory.sol:FHEAuctionNativeFactory",
        "label": "_auctionDeployedCount",
        "offset": 0,
        "slot": "4",
        "type": "t_uint256"
      }
    ],
    "types": {
      "t_address": {
        "encoding": "inplace",
        "label": "address",
        "numberOfBytes": "20"
      },
      "t_bytes32": {
        "encoding": "inplace",
        "label": "bytes32",
        "numberOfBytes": "32"
      },
      "t_contract(FHEAuctionEngineFactory)12062": {
        "encoding": "inplace",
        "label": "contract FHEAuctionEngineFactory",
        "numberOfBytes": "20"
      },
      "t_mapping(t_bytes32,t_address)": {
        "encoding": "mapping",
        "key": "t_bytes32",
        "label": "mapping(bytes32 => address)",
        "numberOfBytes": "32",
        "value": "t_address"
      },
      "t_mapping(t_uint8,t_contract(FHEAuctionEngineFactory)12062)": {
        "encoding": "mapping",
        "key": "t_uint8",
        "label": "mapping(uint8 => contract FHEAuctionEngineFactory)",
        "numberOfBytes": "32",
        "value": "t_contract(FHEAuctionEngineFactory)12062"
      },
      "t_uint256": {
        "encoding": "inplace",
        "label": "uint256",
        "numberOfBytes": "32"
      },
      "t_uint8": {
        "encoding": "inplace",
        "label": "uint8",
        "numberOfBytes": "1"
      }
    }
  }
}